{
  "contractName": "ProductTrack",
  "abi": [
    {
      "inputs": [],
      "stateMutability": "nonpayable",
      "type": "constructor"
    },
    {
      "anonymous": false,
      "inputs": [
        {
          "indexed": false,
          "internalType": "bytes32",
          "name": "id",
          "type": "bytes32"
        }
      ],
      "name": "returnId",
      "type": "event"
    },
    {
      "inputs": [
        {
          "internalType": "string",
          "name": "_string",
          "type": "string"
        }
      ],
      "name": "hash",
      "outputs": [
        {
          "internalType": "bytes32",
          "name": "",
          "type": "bytes32"
        }
      ],
      "stateMutability": "pure",
      "type": "function",
      "constant": true
    },
    {
      "inputs": [],
      "name": "getDashboardData",
      "outputs": [
        {
          "internalType": "uint256",
          "name": "",
          "type": "uint256"
        },
        {
          "internalType": "uint256",
          "name": "",
          "type": "uint256"
        },
        {
          "internalType": "uint256",
          "name": "",
          "type": "uint256"
        },
        {
          "internalType": "uint256",
          "name": "",
          "type": "uint256"
        }
      ],
      "stateMutability": "view",
      "type": "function",
      "constant": true
    },
    {
      "inputs": [
        {
          "internalType": "string",
          "name": "_name",
          "type": "string"
        },
        {
          "internalType": "string",
          "name": "_category",
          "type": "string"
        }
      ],
      "name": "addProduct",
      "outputs": [
        {
          "internalType": "bytes32",
          "name": "",
          "type": "bytes32"
        }
      ],
      "stateMutability": "nonpayable",
      "type": "function"
    },
    {
      "inputs": [
        {
          "internalType": "bytes32",
          "name": "uid",
          "type": "bytes32"
        },
        {
          "internalType": "address",
          "name": "newOwner",
          "type": "address"
        },
        {
          "internalType": "string",
          "name": "newOwnerName",
          "type": "string"
        }
      ],
      "name": "updateOwner",
      "outputs": [],
      "stateMutability": "nonpayable",
      "type": "function"
    },
    {
      "inputs": [
        {
          "internalType": "bytes32",
          "name": "uid",
          "type": "bytes32"
        }
      ],
      "name": "getProduct",
      "outputs": [
        {
          "components": [
            {
              "internalType": "bytes32",
              "name": "id",
              "type": "bytes32"
            },
            {
              "internalType": "string",
              "name": "name",
              "type": "string"
            },
            {
              "internalType": "uint256",
              "name": "date",
              "type": "uint256"
            },
            {
              "internalType": "string",
              "name": "category",
              "type": "string"
            },
            {
              "internalType": "bool",
              "name": "isDispatch",
              "type": "bool"
            },
            {
              "internalType": "address",
              "name": "owner",
              "type": "address"
            },
            {
              "internalType": "string",
              "name": "ownerName",
              "type": "string"
            }
          ],
          "internalType": "struct ProductTrack.customProductReturn",
          "name": "",
          "type": "tuple"
        }
      ],
      "stateMutability": "view",
      "type": "function",
      "constant": true
    },
    {
      "inputs": [],
      "name": "getAllProducts",
      "outputs": [
        {
          "components": [
            {
              "internalType": "bytes32",
              "name": "id",
              "type": "bytes32"
            },
            {
              "internalType": "string",
              "name": "name",
              "type": "string"
            },
            {
              "internalType": "uint256",
              "name": "date",
              "type": "uint256"
            },
            {
              "internalType": "string",
              "name": "category",
              "type": "string"
            },
            {
              "internalType": "bool",
              "name": "isDispatch",
              "type": "bool"
            },
            {
              "internalType": "address",
              "name": "owner",
              "type": "address"
            },
            {
              "internalType": "string",
              "name": "ownerName",
              "type": "string"
            }
          ],
          "internalType": "struct ProductTrack.customProductReturn[]",
          "name": "retProducts",
          "type": "tuple[]"
        }
      ],
      "stateMutability": "view",
      "type": "function",
      "constant": true
    },
    {
      "inputs": [
        {
          "internalType": "bytes32",
          "name": "_id",
          "type": "bytes32"
        }
      ],
      "name": "dispatchProduct",
      "outputs": [],
      "stateMutability": "nonpayable",
      "type": "function"
    },
    {
      "inputs": [
        {
          "internalType": "address",
          "name": "id",
          "type": "address"
        },
        {
          "internalType": "string",
          "name": "_name",
          "type": "string"
        },
        {
          "internalType": "string",
          "name": "_email",
          "type": "string"
        },
        {
          "internalType": "string",
          "name": "_companyName",
          "type": "string"
        },
        {
          "internalType": "string",
          "name": "_city",
          "type": "string"
        },
        {
          "internalType": "string",
          "name": "_state",
          "type": "string"
        },
        {
          "internalType": "uint256",
          "name": "_pincode",
          "type": "uint256"
        }
      ],
      "name": "addMerchants",
      "outputs": [],
      "stateMutability": "nonpayable",
      "type": "function"
    },
    {
      "inputs": [],
      "name": "getAllMerchants",
      "outputs": [
        {
          "components": [
            {
              "internalType": "address",
              "name": "id",
              "type": "address"
            },
            {
              "internalType": "string",
              "name": "name",
              "type": "string"
            },
            {
              "internalType": "string",
              "name": "companyName",
              "type": "string"
            },
            {
              "internalType": "string",
              "name": "email",
              "type": "string"
            },
            {
              "internalType": "uint256",
              "name": "joiningDate",
              "type": "uint256"
            },
            {
              "internalType": "string",
              "name": "state",
              "type": "string"
            },
            {
              "internalType": "string",
              "name": "city",
              "type": "string"
            },
            {
              "internalType": "uint256",
              "name": "pincode",
              "type": "uint256"
            }
          ],
          "internalType": "struct ProductTrack.Merchant[]",
          "name": "",
          "type": "tuple[]"
        }
      ],
      "stateMutability": "view",
      "type": "function",
      "constant": true
    },
    {
      "inputs": [
        {
          "internalType": "address",
          "name": "_id",
          "type": "address"
        }
      ],
      "name": "getMerchant",
      "outputs": [
        {
          "components": [
            {
              "internalType": "address",
              "name": "id",
              "type": "address"
            },
            {
              "internalType": "string",
              "name": "name",
              "type": "string"
            },
            {
              "internalType": "string",
              "name": "companyName",
              "type": "string"
            },
            {
              "internalType": "string",
              "name": "email",
              "type": "string"
            },
            {
              "internalType": "uint256",
              "name": "joiningDate",
              "type": "uint256"
            },
            {
              "internalType": "string",
              "name": "state",
              "type": "string"
            },
            {
              "internalType": "string",
              "name": "city",
              "type": "string"
            },
            {
              "internalType": "uint256",
              "name": "pincode",
              "type": "uint256"
            }
          ],
          "internalType": "struct ProductTrack.Merchant",
          "name": "",
          "type": "tuple"
        }
      ],
      "stateMutability": "view",
      "type": "function",
      "constant": true
    },
    {
      "inputs": [
        {
          "internalType": "address",
          "name": "_id",
          "type": "address"
        }
      ],
      "name": "verifyMerchant",
      "outputs": [
        {
          "internalType": "bool",
          "name": "",
          "type": "bool"
        }
      ],
      "stateMutability": "view",
      "type": "function",
      "constant": true
    },
    {
      "inputs": [
        {
          "internalType": "bytes32",
          "name": "_productId",
          "type": "bytes32"
        },
        {
          "internalType": "address",
          "name": "_merchantId",
          "type": "address"
        }
      ],
      "name": "updateTrack",
      "outputs": [],
      "stateMutability": "nonpayable",
      "type": "function"
    },
    {
      "inputs": [
        {
          "internalType": "bytes32",
          "name": "_productId",
          "type": "bytes32"
        }
      ],
      "name": "getTracks",
      "outputs": [
        {
          "components": [
            {
              "internalType": "address",
              "name": "id",
              "type": "address"
            },
            {
              "internalType": "string",
              "name": "name",
              "type": "string"
            },
            {
              "internalType": "string",
              "name": "companyName",
              "type": "string"
            },
            {
              "internalType": "string",
              "name": "email",
              "type": "string"
            },
            {
              "internalType": "uint256",
              "name": "joiningDate",
              "type": "uint256"
            },
            {
              "internalType": "string",
              "name": "state",
              "type": "string"
            },
            {
              "internalType": "string",
              "name": "city",
              "type": "string"
            },
            {
              "internalType": "uint256",
              "name": "pincode",
              "type": "uint256"
            }
          ],
          "internalType": "struct ProductTrack.Merchant[]",
          "name": "",
          "type": "tuple[]"
        },
        {
          "internalType": "uint256[]",
          "name": "",
          "type": "uint256[]"
        }
      ],
      "stateMutability": "view",
      "type": "function",
      "constant": true
    }
  ],
  "bytecode": "0x60806040526000600155600060025534801561001a57600080fd5b50336000806101000a81548173ffffffffffffffffffffffffffffffffffffffff021916908373ffffffffffffffffffffffffffffffffffffffff1602179055506132d08061006a6000396000f3fe608060405234801561001057600080fd5b50600436106100cf5760003560e01c80638f22be581161008c578063b411ee9411610066578063b411ee9414610211578063ca2efb5514610241578063d9708d4814610271578063f10673af14610292576100cf565b80638f22be58146101a9578063a121faa3146101c5578063b2734eaf146101e1576100cf565b806302ee3a52146100d457806308490ff3146100f25780633a20e9df146101235780634e66d60a1461015357806387ca24d01461016f5780638ce2df511461018b575b600080fd5b6100dc6102c2565b6040516100e991906123d5565b60405180910390f35b61010c60048036038101906101079190612437565b610717565b60405161011a9291906126a1565b60405180910390f35b61013d60048036038101906101389190612437565b610c6f565b60405161014a9190612782565b60405180910390f35b61016d60048036038101906101689190612905565b610f18565b005b610189600480360381019061018491906129a0565b611052565b005b6101936112a7565b6040516101a09190612ace565b60405180910390f35b6101c360048036038101906101be9190612af0565b61171c565b005b6101df60048036038101906101da9190612437565b6117f5565b005b6101fb60048036038101906101f69190612b30565b6118d0565b6040516102089190612c29565b60405180910390f35b61022b60048036038101906102269190612c4b565b611c6e565b6040516102389190612ca3565b60405180910390f35b61025b60048036038101906102569190612cbe565b611c9e565b6040516102689190612ca3565b60405180910390f35b610279611f3a565b6040516102899493929190612d45565b60405180910390f35b6102ac60048036038101906102a79190612b30565b611fee565b6040516102b99190612d99565b60405180910390f35b6060600060058054905067ffffffffffffffff8111156102e5576102e46127da565b5b60405190808252806020026020018201604052801561031e57816020015b61030b612098565b8152602001906001900390816103035790505b50905060005b60058054905081101561070f576000600360006005848154811061034b5761034a612db4565b5b90600052602060002001548152602001908152602001600020604051806101200160405290816000820154815260200160018201805461038a90612e12565b80601f01602080910402602001604051908101604052809291908181526020018280546103b690612e12565b80156104035780601f106103d857610100808354040283529160200191610403565b820191906000526020600020905b8154815290600101906020018083116103e657829003601f168201915b505050505081526020016002820154815260200160038201805461042690612e12565b80601f016020809104026020016040519081016040528092919081815260200182805461045290612e12565b801561049f5780601f106104745761010080835404028352916020019161049f565b820191906000526020600020905b81548152906001019060200180831161048257829003601f168201915b505050505081526020016004820160009054906101000a900460ff16151515158152602001600582015481526020016006820160009054906101000a900473ffffffffffffffffffffffffffffffffffffffff1673ffffffffffffffffffffffffffffffffffffffff1673ffffffffffffffffffffffffffffffffffffffff16815260200160078201805461053390612e12565b80601f016020809104026020016040519081016040528092919081815260200182805461055f90612e12565b80156105ac5780601f10610581576101008083540402835291602001916105ac565b820191906000526020600020905b81548152906001019060200180831161058f57829003601f168201915b5050505050815260200160088201805480602002602001604051908101604052809291908181526020016000905b8282101561066c57838290600052602060002090600202016040518060400160405290816000820160009054906101000a900473ffffffffffffffffffffffffffffffffffffffff1673ffffffffffffffffffffffffffffffffffffffff1673ffffffffffffffffffffffffffffffffffffffff168152602001600182015481525050815260200190600101906105da565b505050508152505090506040518060e00160405280826000015181526020018260200151815260200182604001518152602001826060015181526020018260800151151581526020018260c0015173ffffffffffffffffffffffffffffffffffffffff1681526020018260e001518152508383815181106106f0576106ef612db4565b5b602002602001018190525050808061070790612e72565b915050610324565b508091505090565b60608060006003600085815260200190815260200160002060080180549050905060008167ffffffffffffffff811115610754576107536127da565b5b60405190808252806020026020018201604052801561078d57816020015b61077a6120f0565b8152602001906001900390816107725790505b50905060008267ffffffffffffffff8111156107ac576107ab6127da565b5b6040519080825280602002602001820160405280156107da5781602001602082028036833780820191505090505b50905060005b83811015610c6057600060036000898152602001908152602001600020600801828154811061081257610811612db4565b5b906000526020600020906002020160000160009054906101000a900473ffffffffffffffffffffffffffffffffffffffff169050600460008273ffffffffffffffffffffffffffffffffffffffff1673ffffffffffffffffffffffffffffffffffffffff168152602001908152602001600020604051806101000160405290816000820160009054906101000a900473ffffffffffffffffffffffffffffffffffffffff1673ffffffffffffffffffffffffffffffffffffffff1673ffffffffffffffffffffffffffffffffffffffff1681526020016001820180546108f790612e12565b80601f016020809104026020016040519081016040528092919081815260200182805461092390612e12565b80156109705780601f1061094557610100808354040283529160200191610970565b820191906000526020600020905b81548152906001019060200180831161095357829003601f168201915b5050505050815260200160028201805461098990612e12565b80601f01602080910402602001604051908101604052809291908181526020018280546109b590612e12565b8015610a025780601f106109d757610100808354040283529160200191610a02565b820191906000526020600020905b8154815290600101906020018083116109e557829003601f168201915b50505050508152602001600382018054610a1b90612e12565b80601f0160208091040260200160405190810160405280929190818152602001828054610a4790612e12565b8015610a945780601f10610a6957610100808354040283529160200191610a94565b820191906000526020600020905b815481529060010190602001808311610a7757829003601f168201915b5050505050815260200160048201548152602001600582018054610ab790612e12565b80601f0160208091040260200160405190810160405280929190818152602001828054610ae390612e12565b8015610b305780601f10610b0557610100808354040283529160200191610b30565b820191906000526020600020905b815481529060010190602001808311610b1357829003601f168201915b50505050508152602001600682018054610b4990612e12565b80601f0160208091040260200160405190810160405280929190818152602001828054610b7590612e12565b8015610bc25780601f10610b9757610100808354040283529160200191610bc2565b820191906000526020600020905b815481529060010190602001808311610ba557829003601f168201915b50505050508152602001600782015481525050848381518110610be857610be7612db4565b5b6020026020010181905250600360008981526020019081526020016000206008018281548110610c1b57610c1a612db4565b5b906000526020600020906002020160010154838381518110610c4057610c3f612db4565b5b602002602001018181525050508080610c5890612e72565b9150506107e0565b50818194509450505050915091565b610c77612098565b60006040518060e00160405280848152602001600360008681526020019081526020016000206001018054610cab90612e12565b80601f0160208091040260200160405190810160405280929190818152602001828054610cd790612e12565b8015610d245780601f10610cf957610100808354040283529160200191610d24565b820191906000526020600020905b815481529060010190602001808311610d0757829003601f168201915b5050505050815260200160036000868152602001908152602001600020600201548152602001600360008681526020019081526020016000206003018054610d6b90612e12565b80601f0160208091040260200160405190810160405280929190818152602001828054610d9790612e12565b8015610de45780601f10610db957610100808354040283529160200191610de4565b820191906000526020600020905b815481529060010190602001808311610dc757829003601f168201915b505050505081526020016003600086815260200190815260200160002060040160009054906101000a900460ff16151581526020016003600086815260200190815260200160002060060160009054906101000a900473ffffffffffffffffffffffffffffffffffffffff1673ffffffffffffffffffffffffffffffffffffffff168152602001600360008681526020019081526020016000206007018054610e8c90612e12565b80601f0160208091040260200160405190810160405280929190818152602001828054610eb890612e12565b8015610f055780601f10610eda57610100808354040283529160200191610f05565b820191906000526020600020905b815481529060010190602001808311610ee857829003601f168201915b5050505050815250905080915050919050565b6003600084815260200190815260200160002060060160009054906101000a900473ffffffffffffffffffffffffffffffffffffffff1673ffffffffffffffffffffffffffffffffffffffff163373ffffffffffffffffffffffffffffffffffffffff1614610fbc576040517f08c379a0000000000000000000000000000000000000000000000000000000008152600401610fb390612f3d565b60405180910390fd5b60026000815480929190610fcf90612e72565b9190505550816003600085815260200190815260200160002060060160006101000a81548173ffffffffffffffffffffffffffffffffffffffff021916908373ffffffffffffffffffffffffffffffffffffffff1602179055508060036000858152602001908152602001600020600701908161104c9190613109565b50505050565b60008054906101000a900473ffffffffffffffffffffffffffffffffffffffff1673ffffffffffffffffffffffffffffffffffffffff163373ffffffffffffffffffffffffffffffffffffffff16146110e0576040517f08c379a00000000000000000000000000000000000000000000000000000000081526004016110d790613227565b60405180910390fd5b6006879080600181540180825580915050600190039060005260206000200160009091909190916101000a81548173ffffffffffffffffffffffffffffffffffffffff021916908373ffffffffffffffffffffffffffffffffffffffff1602179055506040518061010001604052808873ffffffffffffffffffffffffffffffffffffffff16815260200187815260200185815260200186815260200142815260200183815260200184815260200182815250600460008973ffffffffffffffffffffffffffffffffffffffff1673ffffffffffffffffffffffffffffffffffffffff16815260200190815260200160002060008201518160000160006101000a81548173ffffffffffffffffffffffffffffffffffffffff021916908373ffffffffffffffffffffffffffffffffffffffff160217905550602082015181600101908161122e9190613109565b5060408201518160020190816112449190613109565b50606082015181600301908161125a9190613109565b506080820151816004015560a082015181600501908161127a9190613109565b5060c08201518160060190816112909190613109565b5060e0820151816007015590505050505050505050565b6060600060068054905067ffffffffffffffff8111156112ca576112c96127da565b5b60405190808252806020026020018201604052801561130357816020015b6112f06120f0565b8152602001906001900390816112e85790505b50905060005b60068054905081101561171457600460006006838154811061132e5761132d612db4565b5b9060005260206000200160009054906101000a900473ffffffffffffffffffffffffffffffffffffffff1673ffffffffffffffffffffffffffffffffffffffff1673ffffffffffffffffffffffffffffffffffffffff168152602001908152602001600020604051806101000160405290816000820160009054906101000a900473ffffffffffffffffffffffffffffffffffffffff1673ffffffffffffffffffffffffffffffffffffffff1673ffffffffffffffffffffffffffffffffffffffff16815260200160018201805461140590612e12565b80601f016020809104026020016040519081016040528092919081815260200182805461143190612e12565b801561147e5780601f106114535761010080835404028352916020019161147e565b820191906000526020600020905b81548152906001019060200180831161146157829003601f168201915b5050505050815260200160028201805461149790612e12565b80601f01602080910402602001604051908101604052809291908181526020018280546114c390612e12565b80156115105780601f106114e557610100808354040283529160200191611510565b820191906000526020600020905b8154815290600101906020018083116114f357829003601f168201915b5050505050815260200160038201805461152990612e12565b80601f016020809104026020016040519081016040528092919081815260200182805461155590612e12565b80156115a25780601f10611577576101008083540402835291602001916115a2565b820191906000526020600020905b81548152906001019060200180831161158557829003601f168201915b50505050508152602001600482015481526020016005820180546115c590612e12565b80601f01602080910402602001604051908101604052809291908181526020018280546115f190612e12565b801561163e5780601f106116135761010080835404028352916020019161163e565b820191906000526020600020905b81548152906001019060200180831161162157829003601f168201915b5050505050815260200160068201805461165790612e12565b80601f016020809104026020016040519081016040528092919081815260200182805461168390612e12565b80156116d05780601f106116a5576101008083540402835291602001916116d0565b820191906000526020600020905b8154815290600101906020018083116116b357829003601f168201915b505050505081526020016007820154815250508282815181106116f6576116f5612db4565b5b6020026020010181905250808061170c90612e72565b915050611309565b508091505090565b6003600083815260200190815260200160002060080160405180604001604052808373ffffffffffffffffffffffffffffffffffffffff16815260200142815250908060018154018082558091505060019003906000526020600020906002020160009091909190915060008201518160000160006101000a81548173ffffffffffffffffffffffffffffffffffffffff021916908373ffffffffffffffffffffffffffffffffffffffff160217905550602082015181600101555050600160008154809291906117ec90612e72565b91905055505050565b60008054906101000a900473ffffffffffffffffffffffffffffffffffffffff1673ffffffffffffffffffffffffffffffffffffffff163373ffffffffffffffffffffffffffffffffffffffff1614611883576040517f08c379a000000000000000000000000000000000000000000000000000000000815260040161187a90613227565b60405180910390fd5b60016003600083815260200190815260200160002060040160006101000a81548160ff02191690831515021790555042600360008381526020019081526020016000206005018190555050565b6118d86120f0565b600460008373ffffffffffffffffffffffffffffffffffffffff1673ffffffffffffffffffffffffffffffffffffffff168152602001908152602001600020604051806101000160405290816000820160009054906101000a900473ffffffffffffffffffffffffffffffffffffffff1673ffffffffffffffffffffffffffffffffffffffff1673ffffffffffffffffffffffffffffffffffffffff16815260200160018201805461198990612e12565b80601f01602080910402602001604051908101604052809291908181526020018280546119b590612e12565b8015611a025780601f106119d757610100808354040283529160200191611a02565b820191906000526020600020905b8154815290600101906020018083116119e557829003601f168201915b50505050508152602001600282018054611a1b90612e12565b80601f0160208091040260200160405190810160405280929190818152602001828054611a4790612e12565b8015611a945780601f10611a6957610100808354040283529160200191611a94565b820191906000526020600020905b815481529060010190602001808311611a7757829003601f168201915b50505050508152602001600382018054611aad90612e12565b80601f0160208091040260200160405190810160405280929190818152602001828054611ad990612e12565b8015611b265780601f10611afb57610100808354040283529160200191611b26565b820191906000526020600020905b815481529060010190602001808311611b0957829003601f168201915b5050505050815260200160048201548152602001600582018054611b4990612e12565b80601f0160208091040260200160405190810160405280929190818152602001828054611b7590612e12565b8015611bc25780601f10611b9757610100808354040283529160200191611bc2565b820191906000526020600020905b815481529060010190602001808311611ba557829003601f168201915b50505050508152602001600682018054611bdb90612e12565b80601f0160208091040260200160405190810160405280929190818152602001828054611c0790612e12565b8015611c545780601f10611c2957610100808354040283529160200191611c54565b820191906000526020600020905b815481529060010190602001808311611c3757829003601f168201915b505050505081526020016007820154815250509050919050565b600081604051602001611c819190613283565b604051602081830303815290604052805190602001209050919050565b60008060009054906101000a900473ffffffffffffffffffffffffffffffffffffffff1673ffffffffffffffffffffffffffffffffffffffff163373ffffffffffffffffffffffffffffffffffffffff1614611d2f576040517f08c379a0000000000000000000000000000000000000000000000000000000008152600401611d2690613227565b60405180910390fd5b6000611d3a84611c6e565b9050600581908060018154018082558091505060019003906000526020600020016000909190919091505580600360008381526020019081526020016000206000018190555083600360008381526020019081526020016000206001019081611da39190613109565b5042600360008381526020019081526020016000206002018190555082600360008381526020019081526020016000206003019081611de29190613109565b5060006003600083815260200190815260200160002060040160006101000a81548160ff0219169083151502179055506000600360008381526020019081526020016000206005018190555060008054906101000a900473ffffffffffffffffffffffffffffffffffffffff166003600083815260200190815260200160002060060160006101000a81548173ffffffffffffffffffffffffffffffffffffffff021916908373ffffffffffffffffffffffffffffffffffffffff1602179055506040518060400160405280600581526020017f61646d696e000000000000000000000000000000000000000000000000000000815250600360008381526020019081526020016000206007019081611efb9190613109565b507fa41d754d5a46ea42f2209234a7fd41bd56d3f4d82bff5600981586ea6ddcdc3881604051611f2b9190612ca3565b60405180910390a15092915050565b60008060008060008054906101000a900473ffffffffffffffffffffffffffffffffffffffff1673ffffffffffffffffffffffffffffffffffffffff163373ffffffffffffffffffffffffffffffffffffffff1614611fce576040517f08c379a0000000000000000000000000000000000000000000000000000000008152600401611fc590613227565b60405180910390fd5b600580549050600680549050600154600254935093509350935090919293565b60008173ffffffffffffffffffffffffffffffffffffffff16600460008473ffffffffffffffffffffffffffffffffffffffff1673ffffffffffffffffffffffffffffffffffffffff16815260200190815260200160002060000160009054906101000a900473ffffffffffffffffffffffffffffffffffffffff1673ffffffffffffffffffffffffffffffffffffffff160361208e5760019050612093565b600090505b919050565b6040518060e0016040528060008019168152602001606081526020016000815260200160608152602001600015158152602001600073ffffffffffffffffffffffffffffffffffffffff168152602001606081525090565b604051806101000160405280600073ffffffffffffffffffffffffffffffffffffffff168152602001606081526020016060815260200160608152602001600081526020016060815260200160608152602001600081525090565b600081519050919050565b600082825260208201905092915050565b6000819050602082019050919050565b6000819050919050565b61218a81612177565b82525050565b600081519050919050565b600082825260208201905092915050565b60005b838110156121ca5780820151818401526020810190506121af565b60008484015250505050565b6000601f19601f8301169050919050565b60006121f282612190565b6121fc818561219b565b935061220c8185602086016121ac565b612215816121d6565b840191505092915050565b6000819050919050565b61223381612220565b82525050565b60008115159050919050565b61224e81612239565b82525050565b600073ffffffffffffffffffffffffffffffffffffffff82169050919050565b600061227f82612254565b9050919050565b61228f81612274565b82525050565b600060e0830160008301516122ad6000860182612181565b50602083015184820360208601526122c582826121e7565b91505060408301516122da604086018261222a565b50606083015184820360608601526122f282826121e7565b91505060808301516123076080860182612245565b5060a083015161231a60a0860182612286565b5060c083015184820360c086015261233282826121e7565b9150508091505092915050565b600061234b8383612295565b905092915050565b6000602082019050919050565b600061236b8261214b565b6123758185612156565b93508360208202850161238785612167565b8060005b858110156123c357848403895281516123a4858261233f565b94506123af83612353565b925060208a0199505060018101905061238b565b50829750879550505050505092915050565b600060208201905081810360008301526123ef8184612360565b905092915050565b6000604051905090565b600080fd5b600080fd5b61241481612177565b811461241f57600080fd5b50565b6000813590506124318161240b565b92915050565b60006020828403121561244d5761244c612401565b5b600061245b84828501612422565b91505092915050565b600081519050919050565b600082825260208201905092915050565b6000819050602082019050919050565b6000610100830160008301516124a96000860182612286565b50602083015184820360208601526124c182826121e7565b915050604083015184820360408601526124db82826121e7565b915050606083015184820360608601526124f582826121e7565b915050608083015161250a608086018261222a565b5060a083015184820360a086015261252282826121e7565b91505060c083015184820360c086015261253c82826121e7565b91505060e083015161255160e086018261222a565b508091505092915050565b60006125688383612490565b905092915050565b6000602082019050919050565b600061258882612464565b612592818561246f565b9350836020820285016125a485612480565b8060005b858110156125e057848403895281516125c1858261255c565b94506125cc83612570565b925060208a019950506001810190506125a8565b50829750879550505050505092915050565b600081519050919050565b600082825260208201905092915050565b6000819050602082019050919050565b600061262a838361222a565b60208301905092915050565b6000602082019050919050565b600061264e826125f2565b61265881856125fd565b93506126638361260e565b8060005b8381101561269457815161267b888261261e565b975061268683612636565b925050600181019050612667565b5085935050505092915050565b600060408201905081810360008301526126bb818561257d565b905081810360208301526126cf8184612643565b90509392505050565b600060e0830160008301516126f06000860182612181565b506020830151848203602086015261270882826121e7565b915050604083015161271d604086018261222a565b506060830151848203606086015261273582826121e7565b915050608083015161274a6080860182612245565b5060a083015161275d60a0860182612286565b5060c083015184820360c086015261277582826121e7565b9150508091505092915050565b6000602082019050818103600083015261279c81846126d8565b905092915050565b6127ad81612274565b81146127b857600080fd5b50565b6000813590506127ca816127a4565b92915050565b600080fd5b600080fd5b7f4e487b7100000000000000000000000000000000000000000000000000000000600052604160045260246000fd5b612812826121d6565b810181811067ffffffffffffffff82111715612831576128306127da565b5b80604052505050565b60006128446123f7565b90506128508282612809565b919050565b600067ffffffffffffffff8211156128705761286f6127da565b5b612879826121d6565b9050602081019050919050565b82818337600083830152505050565b60006128a86128a384612855565b61283a565b9050828152602081018484840111156128c4576128c36127d5565b5b6128cf848285612886565b509392505050565b600082601f8301126128ec576128eb6127d0565b5b81356128fc848260208601612895565b91505092915050565b60008060006060848603121561291e5761291d612401565b5b600061292c86828701612422565b935050602061293d868287016127bb565b925050604084013567ffffffffffffffff81111561295e5761295d612406565b5b61296a868287016128d7565b9150509250925092565b61297d81612220565b811461298857600080fd5b50565b60008135905061299a81612974565b92915050565b600080600080600080600060e0888a0312156129bf576129be612401565b5b60006129cd8a828b016127bb565b975050602088013567ffffffffffffffff8111156129ee576129ed612406565b5b6129fa8a828b016128d7565b965050604088013567ffffffffffffffff811115612a1b57612a1a612406565b5b612a278a828b016128d7565b955050606088013567ffffffffffffffff811115612a4857612a47612406565b5b612a548a828b016128d7565b945050608088013567ffffffffffffffff811115612a7557612a74612406565b5b612a818a828b016128d7565b93505060a088013567ffffffffffffffff811115612aa257612aa1612406565b5b612aae8a828b016128d7565b92505060c0612abf8a828b0161298b565b91505092959891949750929550565b60006020820190508181036000830152612ae8818461257d565b905092915050565b60008060408385031215612b0757612b06612401565b5b6000612b1585828601612422565b9250506020612b26858286016127bb565b9150509250929050565b600060208284031215612b4657612b45612401565b5b6000612b54848285016127bb565b91505092915050565b600061010083016000830151612b766000860182612286565b5060208301518482036020860152612b8e82826121e7565b91505060408301518482036040860152612ba882826121e7565b91505060608301518482036060860152612bc282826121e7565b9150506080830151612bd7608086018261222a565b5060a083015184820360a0860152612bef82826121e7565b91505060c083015184820360c0860152612c0982826121e7565b91505060e0830151612c1e60e086018261222a565b508091505092915050565b60006020820190508181036000830152612c438184612b5d565b905092915050565b600060208284031215612c6157612c60612401565b5b600082013567ffffffffffffffff811115612c7f57612c7e612406565b5b612c8b848285016128d7565b91505092915050565b612c9d81612177565b82525050565b6000602082019050612cb86000830184612c94565b92915050565b60008060408385031215612cd557612cd4612401565b5b600083013567ffffffffffffffff811115612cf357612cf2612406565b5b612cff858286016128d7565b925050602083013567ffffffffffffffff811115612d2057612d1f612406565b5b612d2c858286016128d7565b9150509250929050565b612d3f81612220565b82525050565b6000608082019050612d5a6000830187612d36565b612d676020830186612d36565b612d746040830185612d36565b612d816060830184612d36565b95945050505050565b612d9381612239565b82525050565b6000602082019050612dae6000830184612d8a565b92915050565b7f4e487b7100000000000000000000000000000000000000000000000000000000600052603260045260246000fd5b7f4e487b7100000000000000000000000000000000000000000000000000000000600052602260045260246000fd5b60006002820490506001821680612e2a57607f821691505b602082108103612e3d57612e3c612de3565b5b50919050565b7f4e487b7100000000000000000000000000000000000000000000000000000000600052601160045260246000fd5b6000612e7d82612220565b91507fffffffffffffffffffffffffffffffffffffffffffffffffffffffffffffffff8203612eaf57612eae612e43565b5b600182019050919050565b600082825260208201905092915050565b7f536f727279204f6e6c79204f726967696e616c204f776e65722043616e20436860008201527f616e67652041204f776e65720000000000000000000000000000000000000000602082015250565b6000612f27602c83612eba565b9150612f3282612ecb565b604082019050919050565b60006020820190508181036000830152612f5681612f1a565b9050919050565b60008190508160005260206000209050919050565b60006020601f8301049050919050565b600082821b905092915050565b600060088302612fbf7fffffffffffffffffffffffffffffffffffffffffffffffffffffffffffffffff82612f82565b612fc98683612f82565b95508019841693508086168417925050509392505050565b6000819050919050565b6000613006613001612ffc84612220565b612fe1565b612220565b9050919050565b6000819050919050565b61302083612feb565b61303461302c8261300d565b848454612f8f565b825550505050565b600090565b61304961303c565b613054818484613017565b505050565b5b818110156130785761306d600082613041565b60018101905061305a565b5050565b601f8211156130bd5761308e81612f5d565b61309784612f72565b810160208510156130a6578190505b6130ba6130b285612f72565b830182613059565b50505b505050565b600082821c905092915050565b60006130e0600019846008026130c2565b1980831691505092915050565b60006130f983836130cf565b9150826002028217905092915050565b61311282612190565b67ffffffffffffffff81111561312b5761312a6127da565b5b6131358254612e12565b61314082828561307c565b600060209050601f8311600181146131735760008415613161578287015190505b61316b85826130ed565b8655506131d3565b601f19841661318186612f5d565b60005b828110156131a957848901518255600182019150602085019450602081019050613184565b868310156131c657848901516131c2601f8916826130cf565b8355505b6001600288020188555050505b505050505050565b7f6e6f7420746865206f776e657200000000000000000000000000000000000000600082015250565b6000613211600d83612eba565b915061321c826131db565b602082019050919050565b6000602082019050818103600083015261324081613204565b9050919050565b600081905092915050565b600061325d82612190565b6132678185613247565b93506132778185602086016121ac565b80840191505092915050565b600061328f8284613252565b91508190509291505056fea264697066735822122037d5fc7a95dcf0614293cfd87faa1459ef1ff42368e7f5c3e8673ef5a7c8372064736f6c63430008110033",
  "immutableReferences": {},
  "source": "pragma solidity ^0.8.17; \r\n\r\ncontract ProductTrack {\r\n    address internal owner;\r\n    struct Track{\r\n        address merchantId;\r\n        uint date;\r\n    }\r\n\r\n    struct Product {\r\n        bytes32 id;\r\n        string name;\r\n        uint date;\r\n        string category;\r\n        bool isDispatch;\r\n        uint dispatchDate;\r\n        address owner;\r\n        string ownerName;\r\n        Track[] tracks;\r\n    }\r\n\r\n    struct Merchant {\r\n        address id;\r\n        string name;\r\n        string companyName;\r\n        string email;\r\n        uint joiningDate;\r\n        string state;\r\n        string city;\r\n        uint pincode;\r\n    }\r\n\r\n    struct customProductReturn {\r\n        bytes32 id;\r\n        string name;\r\n        uint date;\r\n        string category;\r\n        bool isDispatch;\r\n        address owner;\r\n        string ownerName;\r\n    }\r\n    constructor () {\r\n        owner = msg.sender;\r\n    }\r\n    modifier onlyOwner{\r\n        require(msg.sender==owner,\"not the owner\");\r\n        _;\r\n    }\r\n\r\n    uint tracksCount = 0;\r\n    uint ownershipTransferedCount = 0;\r\n    mapping (bytes32 => Product) private data;\r\n    mapping (address => Merchant) private merchantsData;\r\n    bytes32[] private keys;\r\n    address[] private merchantKeys;\r\n\r\n    event returnId(bytes32 id);\r\n    function hash(string memory _string) public pure returns(bytes32) {\r\n     return keccak256(abi.encodePacked(_string));\r\n    }\r\n\r\n    function getDashboardData() public view onlyOwner returns(uint,uint,uint,uint){\r\n        return (keys.length,merchantKeys.length,tracksCount,ownershipTransferedCount);\r\n    }\r\n\r\n    function addProduct(string memory _name,string memory _category) public onlyOwner returns(bytes32) {\r\n        bytes32 id = hash(_name);\r\n        keys.push(id);\r\n        data[id].id = id;\r\n        data[id].name = _name;\r\n        data[id].date = block.timestamp;\r\n        data[id].category = _category;\r\n        data[id].isDispatch = false;\r\n        data[id].dispatchDate = 0;\r\n        data[id].owner = owner;\r\n        data[id].ownerName = 'admin';\r\n        emit returnId(id);\r\n    }\r\n    \r\n    function updateOwner(bytes32 uid,address newOwner,string memory newOwnerName) public {\r\n        require(msg.sender == data[uid].owner,\"Sorry Only Original Owner Can Change A Owner\");\r\n        ownershipTransferedCount++;\r\n        data[uid].owner = newOwner;\r\n        data[uid].ownerName = newOwnerName;\r\n    }\r\n\r\n    function getProduct(bytes32 uid) public view returns(customProductReturn memory) {\r\n        customProductReturn memory ret = customProductReturn(uid,data[uid].name,data[uid].date,data[uid].category,data[uid].isDispatch,data[uid].owner,data[uid].ownerName);\r\n        return ret;\r\n    }\r\n\r\n    function getAllProducts() public view returns(customProductReturn[] memory retProducts){\r\n        customProductReturn[] memory pros = new customProductReturn[](keys.length);\r\n        for(uint i = 0; i < keys.length; i++){\r\n            Product memory currPro = data[keys[i]];\r\n            pros[i] = (customProductReturn(currPro.id,currPro.name,currPro.date,currPro.category,currPro.isDispatch,currPro.owner,currPro.ownerName));\r\n        }\r\n        return pros;\r\n    }\r\n\r\n    function dispatchProduct(bytes32 _id) public onlyOwner {\r\n        data[_id].isDispatch = true;\r\n        data[_id].dispatchDate = block.timestamp;\r\n    }\r\n\r\n    function addMerchants(address id,string memory _name,string memory _email,string memory _companyName,string memory _city,string memory _state,uint _pincode) public onlyOwner {\r\n        // bytes32 id = hash(_email);\r\n        merchantKeys.push(id);\r\n        merchantsData[id] = Merchant(id,_name,_companyName,_email,block.timestamp,_state,_city,_pincode);\r\n    }\r\n\r\n    function getAllMerchants() public view returns(Merchant[] memory){\r\n        Merchant[] memory merchants = new Merchant[](merchantKeys.length);\r\n        for(uint i = 0; i < merchantKeys.length; i++){\r\n            merchants[i] = merchantsData[merchantKeys[i]];\r\n        }\r\n        return merchants;\r\n    }\r\n\r\n    function getMerchant(address _id) public view returns (Merchant memory){\r\n        return merchantsData[_id];\r\n    }\r\n    \r\n    function verifyMerchant(address _id) public view returns(bool){\r\n        if(merchantsData[_id].id == _id) return true;\r\n        return false;\r\n    }\r\n\r\n    function updateTrack(bytes32 _productId,address _merchantId) public {\r\n        data[_productId].tracks.push(Track(_merchantId,block.timestamp));\r\n        tracksCount++;\r\n    }\r\n\r\n    function getTracks(bytes32 _productId) public view returns(Merchant[] memory,uint[] memory) {\r\n        uint len = data[_productId].tracks.length;\r\n        Merchant[] memory resTracks = new Merchant[](len);\r\n        uint[] memory dateofTracks = new uint[](len);\r\n        for(uint i = 0; i < len; i++){\r\n            address currMerchant = data[_productId].tracks[i].merchantId;\r\n            resTracks[i] = merchantsData[currMerchant]; \r\n            dateofTracks[i] = data[_productId].tracks[i].date;\r\n        }\r\n        return (resTracks,dateofTracks);\r\n    }\r\n}",
  "sourcePath": "D:\\projects\\productify\\contracts\\ProductTrack.sol",
  "compiler": {
    "name": "solc",
    "version": "0.8.17+commit.8df45f5f.Emscripten.clang"
  },
  "schemaVersion": "3.4.10",
  "updatedAt": "2023-03-28T06:33:50.689Z",
  "networkType": "ethereum",
  "devdoc": {
    "kind": "dev",
    "methods": {},
    "version": 1
  },
  "userdoc": {
    "kind": "user",
    "methods": {},
    "version": 1
  }
}