{
  "contractName": "ProductTrack",
  "abi": [
    {
      "inputs": [],
      "stateMutability": "nonpayable",
      "type": "constructor"
    },
    {
      "anonymous": false,
      "inputs": [
        {
          "indexed": false,
          "internalType": "bytes32",
          "name": "id",
          "type": "bytes32"
        }
      ],
      "name": "returnId",
      "type": "event"
    },
    {
      "inputs": [
        {
          "internalType": "string",
          "name": "_string",
          "type": "string"
        }
      ],
      "name": "hash",
      "outputs": [
        {
          "internalType": "bytes32",
          "name": "",
          "type": "bytes32"
        }
      ],
      "stateMutability": "pure",
      "type": "function",
      "constant": true
    },
    {
      "inputs": [
        {
          "internalType": "string",
          "name": "_name",
          "type": "string"
        },
        {
          "internalType": "string",
          "name": "_category",
          "type": "string"
        }
      ],
      "name": "addProduct",
      "outputs": [
        {
          "internalType": "bytes32",
          "name": "",
          "type": "bytes32"
        }
      ],
      "stateMutability": "nonpayable",
      "type": "function"
    },
    {
      "inputs": [
        {
          "internalType": "bytes32",
          "name": "uid",
          "type": "bytes32"
        }
      ],
      "name": "getProduct",
      "outputs": [
        {
          "internalType": "bytes32",
          "name": "retid",
          "type": "bytes32"
        },
        {
          "internalType": "string",
          "name": "retname",
          "type": "string"
        },
        {
          "internalType": "uint256",
          "name": "retdate",
          "type": "uint256"
        },
        {
          "internalType": "bool",
          "name": "",
          "type": "bool"
        },
        {
          "internalType": "uint256",
          "name": "",
          "type": "uint256"
        },
        {
          "internalType": "string",
          "name": "",
          "type": "string"
        }
      ],
      "stateMutability": "view",
      "type": "function",
      "constant": true
    },
    {
      "inputs": [],
      "name": "getAllProducts",
      "outputs": [
        {
          "components": [
            {
              "internalType": "bytes32",
              "name": "id",
              "type": "bytes32"
            },
            {
              "internalType": "string",
              "name": "name",
              "type": "string"
            },
            {
              "internalType": "uint256",
              "name": "date",
              "type": "uint256"
            },
            {
              "internalType": "string",
              "name": "category",
              "type": "string"
            },
            {
              "internalType": "bool",
              "name": "isDispatch",
              "type": "bool"
            }
          ],
          "internalType": "struct ProductTrack.customProductReturn[]",
          "name": "retProducts",
          "type": "tuple[]"
        }
      ],
      "stateMutability": "view",
      "type": "function",
      "constant": true
    },
    {
      "inputs": [
        {
          "internalType": "bytes32",
          "name": "_id",
          "type": "bytes32"
        }
      ],
      "name": "dispatchProduct",
      "outputs": [],
      "stateMutability": "nonpayable",
      "type": "function"
    },
    {
      "inputs": [
        {
          "internalType": "address",
          "name": "id",
          "type": "address"
        },
        {
          "internalType": "string",
          "name": "_name",
          "type": "string"
        },
        {
          "internalType": "string",
          "name": "_email",
          "type": "string"
        },
        {
          "internalType": "string",
          "name": "_companyName",
          "type": "string"
        },
        {
          "internalType": "string",
          "name": "_city",
          "type": "string"
        },
        {
          "internalType": "string",
          "name": "_state",
          "type": "string"
        },
        {
          "internalType": "uint256",
          "name": "_pincode",
          "type": "uint256"
        }
      ],
      "name": "addMerchants",
      "outputs": [],
      "stateMutability": "nonpayable",
      "type": "function"
    },
    {
      "inputs": [
        {
          "internalType": "address",
          "name": "_id",
          "type": "address"
        }
      ],
      "name": "getMerchant",
      "outputs": [
        {
          "components": [
            {
              "internalType": "address",
              "name": "id",
              "type": "address"
            },
            {
              "internalType": "string",
              "name": "name",
              "type": "string"
            },
            {
              "internalType": "string",
              "name": "companyName",
              "type": "string"
            },
            {
              "internalType": "string",
              "name": "email",
              "type": "string"
            },
            {
              "internalType": "uint256",
              "name": "joiningDate",
              "type": "uint256"
            },
            {
              "internalType": "string",
              "name": "state",
              "type": "string"
            },
            {
              "internalType": "string",
              "name": "city",
              "type": "string"
            },
            {
              "internalType": "uint256",
              "name": "pincode",
              "type": "uint256"
            }
          ],
          "internalType": "struct ProductTrack.Merchant",
          "name": "",
          "type": "tuple"
        }
      ],
      "stateMutability": "view",
      "type": "function",
      "constant": true
    },
    {
      "inputs": [
        {
          "internalType": "address",
          "name": "_id",
          "type": "address"
        }
      ],
      "name": "verifyMerchant",
      "outputs": [
        {
          "internalType": "bool",
          "name": "",
          "type": "bool"
        }
      ],
      "stateMutability": "view",
      "type": "function",
      "constant": true
    },
    {
      "inputs": [
        {
          "internalType": "bytes32",
          "name": "_productId",
          "type": "bytes32"
        },
        {
          "internalType": "address",
          "name": "_merchantId",
          "type": "address"
        }
      ],
      "name": "updateTrack",
      "outputs": [],
      "stateMutability": "nonpayable",
      "type": "function"
    },
    {
      "inputs": [
        {
          "internalType": "bytes32",
          "name": "_productId",
          "type": "bytes32"
        }
      ],
      "name": "getTracks",
      "outputs": [
        {
          "components": [
            {
              "internalType": "address",
              "name": "id",
              "type": "address"
            },
            {
              "internalType": "string",
              "name": "name",
              "type": "string"
            },
            {
              "internalType": "string",
              "name": "companyName",
              "type": "string"
            },
            {
              "internalType": "string",
              "name": "email",
              "type": "string"
            },
            {
              "internalType": "uint256",
              "name": "joiningDate",
              "type": "uint256"
            },
            {
              "internalType": "string",
              "name": "state",
              "type": "string"
            },
            {
              "internalType": "string",
              "name": "city",
              "type": "string"
            },
            {
              "internalType": "uint256",
              "name": "pincode",
              "type": "uint256"
            }
          ],
          "internalType": "struct ProductTrack.Merchant[]",
          "name": "",
          "type": "tuple[]"
        }
      ],
      "stateMutability": "view",
      "type": "function",
      "constant": true
    }
  ],
  "bytecode": "0x6080604052600060015534801561001557600080fd5b50336000806101000a81548173ffffffffffffffffffffffffffffffffffffffff021916908373ffffffffffffffffffffffffffffffffffffffff160217905550612563806100656000396000f3fe608060405234801561001057600080fd5b506004361061009e5760003560e01c8063a121faa311610066578063a121faa31461015e578063b2734eaf1461017a578063b411ee94146101aa578063ca2efb55146101da578063f10673af1461020a5761009e565b806302ee3a52146100a357806308490ff3146100c15780633a20e9df146100f157806387ca24d0146101265780638f22be5814610142575b600080fd5b6100ab61023a565b6040516100b89190611877565b60405180910390f35b6100db60048036038101906100d691906118d9565b61057c565b6040516100e89190611ad5565b60405180910390f35b61010b600480360381019061010691906118d9565b610a29565b60405161011d96959493929190611b6e565b60405180910390f35b610140600480360381019061013b9190611d6a565b610be0565b005b61015c60048036038101906101579190611e98565b610dd2565b005b610178600480360381019061017391906118d9565b610e93565b005b610194600480360381019061018f9190611ed8565b610f6e565b6040516101a19190611fd1565b60405180910390f35b6101c460048036038101906101bf9190611ff3565b61130c565b6040516101d1919061203c565b60405180910390f35b6101f460048036038101906101ef9190612057565b61133c565b604051610201919061203c565b60405180910390f35b610224600480360381019061021f9190611ed8565b611522565b60405161023191906120cf565b60405180910390f35b6060600060048054905067ffffffffffffffff81111561025d5761025c611c13565b5b60405190808252806020026020018201604052801561029657816020015b6102836115cc565b81526020019060019003908161027b5790505b50905060005b60048054905081101561057457600060026000600484815481106102c3576102c26120ea565b5b906000526020600020015481526020019081526020016000206040518060e00160405290816000820154815260200160018201805461030190612148565b80601f016020809104026020016040519081016040528092919081815260200182805461032d90612148565b801561037a5780601f1061034f5761010080835404028352916020019161037a565b820191906000526020600020905b81548152906001019060200180831161035d57829003601f168201915b505050505081526020016002820154815260200160038201805461039d90612148565b80601f01602080910402602001604051908101604052809291908181526020018280546103c990612148565b80156104165780601f106103eb57610100808354040283529160200191610416565b820191906000526020600020905b8154815290600101906020018083116103f957829003601f168201915b505050505081526020016004820160009054906101000a900460ff161515151581526020016005820154815260200160068201805480602002602001604051908101604052809291908181526020016000905b828210156104fb57838290600052602060002090600202016040518060400160405290816000820160009054906101000a900473ffffffffffffffffffffffffffffffffffffffff1673ffffffffffffffffffffffffffffffffffffffff1673ffffffffffffffffffffffffffffffffffffffff16815260200160018201548152505081526020019060010190610469565b505050508152505090506040518060a001604052808260000151815260200182602001518152602001826040015181526020018260600151815260200182608001511515815250838381518110610555576105546120ea565b5b602002602001018190525050808061056c906121a8565b91505061029c565b508091505090565b606060006002600084815260200190815260200160002060060180549050905060008167ffffffffffffffff8111156105b8576105b7611c13565b5b6040519080825280602002602001820160405280156105f157816020015b6105de611600565b8152602001906001900390816105d65790505b50905060005b82811015610a1e576000600260008781526020019081526020016000206006018281548110610629576106286120ea565b5b906000526020600020906002020160000160009054906101000a900473ffffffffffffffffffffffffffffffffffffffff169050600360008273ffffffffffffffffffffffffffffffffffffffff1673ffffffffffffffffffffffffffffffffffffffff168152602001908152602001600020604051806101000160405290816000820160009054906101000a900473ffffffffffffffffffffffffffffffffffffffff1673ffffffffffffffffffffffffffffffffffffffff1673ffffffffffffffffffffffffffffffffffffffff16815260200160018201805461070e90612148565b80601f016020809104026020016040519081016040528092919081815260200182805461073a90612148565b80156107875780601f1061075c57610100808354040283529160200191610787565b820191906000526020600020905b81548152906001019060200180831161076a57829003601f168201915b505050505081526020016002820180546107a090612148565b80601f01602080910402602001604051908101604052809291908181526020018280546107cc90612148565b80156108195780601f106107ee57610100808354040283529160200191610819565b820191906000526020600020905b8154815290600101906020018083116107fc57829003601f168201915b5050505050815260200160038201805461083290612148565b80601f016020809104026020016040519081016040528092919081815260200182805461085e90612148565b80156108ab5780601f10610880576101008083540402835291602001916108ab565b820191906000526020600020905b81548152906001019060200180831161088e57829003601f168201915b50505050508152602001600482015481526020016005820180546108ce90612148565b80601f01602080910402602001604051908101604052809291908181526020018280546108fa90612148565b80156109475780601f1061091c57610100808354040283529160200191610947565b820191906000526020600020905b81548152906001019060200180831161092a57829003601f168201915b5050505050815260200160068201805461096090612148565b80601f016020809104026020016040519081016040528092919081815260200182805461098c90612148565b80156109d95780601f106109ae576101008083540402835291602001916109d9565b820191906000526020600020905b8154815290600101906020018083116109bc57829003601f168201915b505050505081526020016007820154815250508383815181106109ff576109fe6120ea565b5b6020026020010181905250508080610a16906121a8565b9150506105f7565b508092505050919050565b60006060600080600060608660026000898152602001908152602001600020600101600260008a815260200190815260200160002060020154600260008b815260200190815260200160002060040160009054906101000a900460ff16600260008c815260200190815260200160002060050154600260008d8152602001908152602001600020600301848054610abf90612148565b80601f0160208091040260200160405190810160405280929190818152602001828054610aeb90612148565b8015610b385780601f10610b0d57610100808354040283529160200191610b38565b820191906000526020600020905b815481529060010190602001808311610b1b57829003601f168201915b50505050509450808054610b4b90612148565b80601f0160208091040260200160405190810160405280929190818152602001828054610b7790612148565b8015610bc45780601f10610b9957610100808354040283529160200191610bc4565b820191906000526020600020905b815481529060010190602001808311610ba757829003601f168201915b5050505050905095509550955095509550955091939550919395565b60008054906101000a900473ffffffffffffffffffffffffffffffffffffffff1673ffffffffffffffffffffffffffffffffffffffff163373ffffffffffffffffffffffffffffffffffffffff1614610c6e576040517f08c379a0000000000000000000000000000000000000000000000000000000008152600401610c659061223c565b60405180910390fd5b6040518061010001604052808873ffffffffffffffffffffffffffffffffffffffff16815260200187815260200185815260200186815260200142815260200183815260200184815260200182815250600360008973ffffffffffffffffffffffffffffffffffffffff1673ffffffffffffffffffffffffffffffffffffffff16815260200190815260200160002060008201518160000160006101000a81548173ffffffffffffffffffffffffffffffffffffffff021916908373ffffffffffffffffffffffffffffffffffffffff1602179055506020820151816001019081610d599190612408565b506040820151816002019081610d6f9190612408565b506060820151816003019081610d859190612408565b506080820151816004015560a0820151816005019081610da59190612408565b5060c0820151816006019081610dbb9190612408565b5060e0820151816007015590505050505050505050565b6002600083815260200190815260200160002060060160405180604001604052808373ffffffffffffffffffffffffffffffffffffffff16815260200142815250908060018154018082558091505060019003906000526020600020906002020160009091909190915060008201518160000160006101000a81548173ffffffffffffffffffffffffffffffffffffffff021916908373ffffffffffffffffffffffffffffffffffffffff1602179055506020820151816001015550505050565b60008054906101000a900473ffffffffffffffffffffffffffffffffffffffff1673ffffffffffffffffffffffffffffffffffffffff163373ffffffffffffffffffffffffffffffffffffffff1614610f21576040517f08c379a0000000000000000000000000000000000000000000000000000000008152600401610f189061223c565b60405180910390fd5b60016002600083815260200190815260200160002060040160006101000a81548160ff02191690831515021790555042600260008381526020019081526020016000206005018190555050565b610f76611600565b600360008373ffffffffffffffffffffffffffffffffffffffff1673ffffffffffffffffffffffffffffffffffffffff168152602001908152602001600020604051806101000160405290816000820160009054906101000a900473ffffffffffffffffffffffffffffffffffffffff1673ffffffffffffffffffffffffffffffffffffffff1673ffffffffffffffffffffffffffffffffffffffff16815260200160018201805461102790612148565b80601f016020809104026020016040519081016040528092919081815260200182805461105390612148565b80156110a05780601f10611075576101008083540402835291602001916110a0565b820191906000526020600020905b81548152906001019060200180831161108357829003601f168201915b505050505081526020016002820180546110b990612148565b80601f01602080910402602001604051908101604052809291908181526020018280546110e590612148565b80156111325780601f1061110757610100808354040283529160200191611132565b820191906000526020600020905b81548152906001019060200180831161111557829003601f168201915b5050505050815260200160038201805461114b90612148565b80601f016020809104026020016040519081016040528092919081815260200182805461117790612148565b80156111c45780601f10611199576101008083540402835291602001916111c4565b820191906000526020600020905b8154815290600101906020018083116111a757829003601f168201915b50505050508152602001600482015481526020016005820180546111e790612148565b80601f016020809104026020016040519081016040528092919081815260200182805461121390612148565b80156112605780601f1061123557610100808354040283529160200191611260565b820191906000526020600020905b81548152906001019060200180831161124357829003601f168201915b5050505050815260200160068201805461127990612148565b80601f01602080910402602001604051908101604052809291908181526020018280546112a590612148565b80156112f25780601f106112c7576101008083540402835291602001916112f2565b820191906000526020600020905b8154815290600101906020018083116112d557829003601f168201915b505050505081526020016007820154815250509050919050565b60008160405160200161131f9190612516565b604051602081830303815290604052805190602001209050919050565b60008060009054906101000a900473ffffffffffffffffffffffffffffffffffffffff1673ffffffffffffffffffffffffffffffffffffffff163373ffffffffffffffffffffffffffffffffffffffff16146113cd576040517f08c379a00000000000000000000000000000000000000000000000000000000081526004016113c49061223c565b60405180910390fd5b600160008154809291906113e0906121a8565b919050555060006113f08461130c565b90506004819080600181540180825580915050600190039060005260206000200160009091909190915055806002600083815260200190815260200160002060000181905550836002600083815260200190815260200160002060010190816114599190612408565b50426002600083815260200190815260200160002060020181905550826002600083815260200190815260200160002060030190816114989190612408565b5060006002600083815260200190815260200160002060040160006101000a81548160ff021916908315150217905550600060026000838152602001908152602001600020600501819055507fa41d754d5a46ea42f2209234a7fd41bd56d3f4d82bff5600981586ea6ddcdc3881604051611513919061203c565b60405180910390a15092915050565b60008173ffffffffffffffffffffffffffffffffffffffff16600360008473ffffffffffffffffffffffffffffffffffffffff1673ffffffffffffffffffffffffffffffffffffffff16815260200190815260200160002060000160009054906101000a900473ffffffffffffffffffffffffffffffffffffffff1673ffffffffffffffffffffffffffffffffffffffff16036115c257600190506115c7565b600090505b919050565b6040518060a00160405280600080191681526020016060815260200160008152602001606081526020016000151581525090565b604051806101000160405280600073ffffffffffffffffffffffffffffffffffffffff168152602001606081526020016060815260200160608152602001600081526020016060815260200160608152602001600081525090565b600081519050919050565b600082825260208201905092915050565b6000819050602082019050919050565b6000819050919050565b61169a81611687565b82525050565b600081519050919050565b600082825260208201905092915050565b60005b838110156116da5780820151818401526020810190506116bf565b60008484015250505050565b6000601f19601f8301169050919050565b6000611702826116a0565b61170c81856116ab565b935061171c8185602086016116bc565b611725816116e6565b840191505092915050565b6000819050919050565b61174381611730565b82525050565b60008115159050919050565b61175e81611749565b82525050565b600060a08301600083015161177c6000860182611691565b506020830151848203602086015261179482826116f7565b91505060408301516117a9604086018261173a565b50606083015184820360608601526117c182826116f7565b91505060808301516117d66080860182611755565b508091505092915050565b60006117ed8383611764565b905092915050565b6000602082019050919050565b600061180d8261165b565b6118178185611666565b93508360208202850161182985611677565b8060005b85811015611865578484038952815161184685826117e1565b9450611851836117f5565b925060208a0199505060018101905061182d565b50829750879550505050505092915050565b600060208201905081810360008301526118918184611802565b905092915050565b6000604051905090565b600080fd5b600080fd5b6118b681611687565b81146118c157600080fd5b50565b6000813590506118d3816118ad565b92915050565b6000602082840312156118ef576118ee6118a3565b5b60006118fd848285016118c4565b91505092915050565b600081519050919050565b600082825260208201905092915050565b6000819050602082019050919050565b600073ffffffffffffffffffffffffffffffffffffffff82169050919050565b600061195d82611932565b9050919050565b61196d81611952565b82525050565b60006101008301600083015161198c6000860182611964565b50602083015184820360208601526119a482826116f7565b915050604083015184820360408601526119be82826116f7565b915050606083015184820360608601526119d882826116f7565b91505060808301516119ed608086018261173a565b5060a083015184820360a0860152611a0582826116f7565b91505060c083015184820360c0860152611a1f82826116f7565b91505060e0830151611a3460e086018261173a565b508091505092915050565b6000611a4b8383611973565b905092915050565b6000602082019050919050565b6000611a6b82611906565b611a758185611911565b935083602082028501611a8785611922565b8060005b85811015611ac35784840389528151611aa48582611a3f565b9450611aaf83611a53565b925060208a01995050600181019050611a8b565b50829750879550505050505092915050565b60006020820190508181036000830152611aef8184611a60565b905092915050565b611b0081611687565b82525050565b600082825260208201905092915050565b6000611b22826116a0565b611b2c8185611b06565b9350611b3c8185602086016116bc565b611b45816116e6565b840191505092915050565b611b5981611730565b82525050565b611b6881611749565b82525050565b600060c082019050611b836000830189611af7565b8181036020830152611b958188611b17565b9050611ba46040830187611b50565b611bb16060830186611b5f565b611bbe6080830185611b50565b81810360a0830152611bd08184611b17565b9050979650505050505050565b611be681611952565b8114611bf157600080fd5b50565b600081359050611c0381611bdd565b92915050565b600080fd5b600080fd5b7f4e487b7100000000000000000000000000000000000000000000000000000000600052604160045260246000fd5b611c4b826116e6565b810181811067ffffffffffffffff82111715611c6a57611c69611c13565b5b80604052505050565b6000611c7d611899565b9050611c898282611c42565b919050565b600067ffffffffffffffff821115611ca957611ca8611c13565b5b611cb2826116e6565b9050602081019050919050565b82818337600083830152505050565b6000611ce1611cdc84611c8e565b611c73565b905082815260208101848484011115611cfd57611cfc611c0e565b5b611d08848285611cbf565b509392505050565b600082601f830112611d2557611d24611c09565b5b8135611d35848260208601611cce565b91505092915050565b611d4781611730565b8114611d5257600080fd5b50565b600081359050611d6481611d3e565b92915050565b600080600080600080600060e0888a031215611d8957611d886118a3565b5b6000611d978a828b01611bf4565b975050602088013567ffffffffffffffff811115611db857611db76118a8565b5b611dc48a828b01611d10565b965050604088013567ffffffffffffffff811115611de557611de46118a8565b5b611df18a828b01611d10565b955050606088013567ffffffffffffffff811115611e1257611e116118a8565b5b611e1e8a828b01611d10565b945050608088013567ffffffffffffffff811115611e3f57611e3e6118a8565b5b611e4b8a828b01611d10565b93505060a088013567ffffffffffffffff811115611e6c57611e6b6118a8565b5b611e788a828b01611d10565b92505060c0611e898a828b01611d55565b91505092959891949750929550565b60008060408385031215611eaf57611eae6118a3565b5b6000611ebd858286016118c4565b9250506020611ece85828601611bf4565b9150509250929050565b600060208284031215611eee57611eed6118a3565b5b6000611efc84828501611bf4565b91505092915050565b600061010083016000830151611f1e6000860182611964565b5060208301518482036020860152611f3682826116f7565b91505060408301518482036040860152611f5082826116f7565b91505060608301518482036060860152611f6a82826116f7565b9150506080830151611f7f608086018261173a565b5060a083015184820360a0860152611f9782826116f7565b91505060c083015184820360c0860152611fb182826116f7565b91505060e0830151611fc660e086018261173a565b508091505092915050565b60006020820190508181036000830152611feb8184611f05565b905092915050565b600060208284031215612009576120086118a3565b5b600082013567ffffffffffffffff811115612027576120266118a8565b5b61203384828501611d10565b91505092915050565b60006020820190506120516000830184611af7565b92915050565b6000806040838503121561206e5761206d6118a3565b5b600083013567ffffffffffffffff81111561208c5761208b6118a8565b5b61209885828601611d10565b925050602083013567ffffffffffffffff8111156120b9576120b86118a8565b5b6120c585828601611d10565b9150509250929050565b60006020820190506120e46000830184611b5f565b92915050565b7f4e487b7100000000000000000000000000000000000000000000000000000000600052603260045260246000fd5b7f4e487b7100000000000000000000000000000000000000000000000000000000600052602260045260246000fd5b6000600282049050600182168061216057607f821691505b60208210810361217357612172612119565b5b50919050565b7f4e487b7100000000000000000000000000000000000000000000000000000000600052601160045260246000fd5b60006121b382611730565b91507fffffffffffffffffffffffffffffffffffffffffffffffffffffffffffffffff82036121e5576121e4612179565b5b600182019050919050565b7f6e6f7420746865206f776e657200000000000000000000000000000000000000600082015250565b6000612226600d83611b06565b9150612231826121f0565b602082019050919050565b6000602082019050818103600083015261225581612219565b9050919050565b60008190508160005260206000209050919050565b60006020601f8301049050919050565b600082821b905092915050565b6000600883026122be7fffffffffffffffffffffffffffffffffffffffffffffffffffffffffffffffff82612281565b6122c88683612281565b95508019841693508086168417925050509392505050565b6000819050919050565b60006123056123006122fb84611730565b6122e0565b611730565b9050919050565b6000819050919050565b61231f836122ea565b61233361232b8261230c565b84845461228e565b825550505050565b600090565b61234861233b565b612353818484612316565b505050565b5b818110156123775761236c600082612340565b600181019050612359565b5050565b601f8211156123bc5761238d8161225c565b61239684612271565b810160208510156123a5578190505b6123b96123b185612271565b830182612358565b50505b505050565b600082821c905092915050565b60006123df600019846008026123c1565b1980831691505092915050565b60006123f883836123ce565b9150826002028217905092915050565b612411826116a0565b67ffffffffffffffff81111561242a57612429611c13565b5b6124348254612148565b61243f82828561237b565b600060209050601f8311600181146124725760008415612460578287015190505b61246a85826123ec565b8655506124d2565b601f1984166124808661225c565b60005b828110156124a857848901518255600182019150602085019450602081019050612483565b868310156124c557848901516124c1601f8916826123ce565b8355505b6001600288020188555050505b505050505050565b600081905092915050565b60006124f0826116a0565b6124fa81856124da565b935061250a8185602086016116bc565b80840191505092915050565b600061252282846124e5565b91508190509291505056fea26469706673582212205b4103d8c0126cc63fabd3df47822b7995fe2c622fca49204621d757362712d864736f6c63430008110033",
  "immutableReferences": {},
  "source": "pragma solidity ^0.8.17; \r\n\r\ncontract ProductTrack {\r\n    address internal owner;\r\n    struct Track{\r\n        address merchantId;\r\n        uint date;\r\n    }\r\n\r\n    struct Product {\r\n        bytes32 id;\r\n        string name;\r\n        uint date;\r\n        string category;\r\n        bool isDispatch;\r\n        uint dispatchDate;\r\n        Track[] tracks;\r\n    }\r\n\r\n    struct Merchant {\r\n        address id;\r\n        string name;\r\n        string companyName;\r\n        string email;\r\n        uint joiningDate;\r\n        string state;\r\n        string city;\r\n        uint pincode;\r\n    }\r\n    \r\n\r\n    struct customProductReturn {\r\n        bytes32 id;\r\n        string name;\r\n        uint date;\r\n        string category;\r\n        bool isDispatch;\r\n    }\r\n    constructor () {\r\n        owner = msg.sender;\r\n    }\r\n    modifier onlyOwner{\r\n        require(msg.sender==owner,\"not the owner\");\r\n        _;\r\n    }\r\n\r\n    uint count = 0;\r\n    mapping (bytes32 => Product) private data;\r\n    mapping (address => Merchant) private merchantsData;\r\n    bytes32[] private keys;\r\n\r\n    event returnId(bytes32 id);\r\n    function hash(string memory _string) public pure returns(bytes32) {\r\n     return keccak256(abi.encodePacked(_string));\r\n    }\r\n\r\n    function addProduct(string memory _name,string memory _category) public onlyOwner returns(bytes32) {\r\n        count++;\r\n        bytes32 id = hash(_name);\r\n        keys.push(id);\r\n        data[id].id = id;\r\n        data[id].name = _name;\r\n        data[id].date = block.timestamp;\r\n        data[id].category = _category;\r\n        data[id].isDispatch = false;\r\n        data[id].dispatchDate = 0;\r\n        emit returnId(id);\r\n    }\r\n\r\n    function getProduct(bytes32 uid) public view returns(bytes32 retid,string memory retname,uint retdate,bool,uint,string memory) {\r\n        return (uid,data[uid].name,data[uid].date,data[uid].isDispatch,data[uid].dispatchDate,data[uid].category);\r\n    }\r\n\r\n    function getAllProducts() public view returns(customProductReturn[] memory retProducts){\r\n        customProductReturn[] memory pros = new customProductReturn[](keys.length);\r\n        for(uint i = 0; i < keys.length; i++){\r\n            Product memory currPro = data[keys[i]];\r\n            pros[i] = (customProductReturn(currPro.id,currPro.name,currPro.date,currPro.category,currPro.isDispatch));\r\n        }\r\n        return pros;\r\n    }\r\n\r\n    function dispatchProduct(bytes32 _id) public onlyOwner {\r\n        data[_id].isDispatch = true;\r\n        data[_id].dispatchDate = block.timestamp;\r\n    }\r\n\r\n    function addMerchants(address id,string memory _name,string memory _email,string memory _companyName,string memory _city,string memory _state,uint _pincode) public onlyOwner {\r\n        // bytes32 id = hash(_email);\r\n        merchantsData[id] = Merchant(id,_name,_companyName,_email,block.timestamp,_state,_city,_pincode);\r\n    }\r\n\r\n    function getMerchant(address _id) public view returns (Merchant memory){\r\n        return merchantsData[_id];\r\n    }\r\n    \r\n    function verifyMerchant(address _id) public view returns(bool){\r\n        if(merchantsData[_id].id == _id) return true;\r\n        return false;\r\n    }\r\n\r\n    function updateTrack(bytes32 _productId,address _merchantId) public {\r\n        data[_productId].tracks.push(Track(_merchantId,block.timestamp));\r\n    }\r\n\r\n    function getTracks(bytes32 _productId) public view returns(Merchant[] memory) {\r\n        uint len = data[_productId].tracks.length;\r\n        Merchant[] memory resTracks = new Merchant[](len);\r\n        for(uint i = 0; i < len; i++){\r\n            address currMerchant = data[_productId].tracks[i].merchantId;\r\n            resTracks[i] = merchantsData[currMerchant]; \r\n        }\r\n        return resTracks;\r\n    }\r\n}",
  "sourcePath": "D:\\projects\\productify\\contracts\\ProductTrack.sol",
  "compiler": {
    "name": "solc",
    "version": "0.8.17+commit.8df45f5f.Emscripten.clang"
  },
  "schemaVersion": "3.4.10",
  "updatedAt": "2023-02-01T06:50:34.659Z",
  "networkType": "ethereum",
  "devdoc": {
    "kind": "dev",
    "methods": {},
    "version": 1
  },
  "userdoc": {
    "kind": "user",
    "methods": {},
    "version": 1
  }
}