{
  "contractName": "ProductTrack",
  "abi": [
    {
      "inputs": [],
      "stateMutability": "nonpayable",
      "type": "constructor"
    },
    {
      "anonymous": false,
      "inputs": [
        {
          "indexed": false,
          "internalType": "bytes32",
          "name": "id",
          "type": "bytes32"
        }
      ],
      "name": "returnId",
      "type": "event"
    },
    {
      "inputs": [],
      "name": "isOwner",
      "outputs": [
        {
          "internalType": "bool",
          "name": "",
          "type": "bool"
        }
      ],
      "stateMutability": "view",
      "type": "function",
      "constant": true
    },
    {
      "inputs": [
        {
          "internalType": "string",
          "name": "_string",
          "type": "string"
        }
      ],
      "name": "hash",
      "outputs": [
        {
          "internalType": "bytes32",
          "name": "",
          "type": "bytes32"
        }
      ],
      "stateMutability": "pure",
      "type": "function",
      "constant": true
    },
    {
      "inputs": [],
      "name": "getDashboardData",
      "outputs": [
        {
          "internalType": "uint256",
          "name": "",
          "type": "uint256"
        },
        {
          "internalType": "uint256",
          "name": "",
          "type": "uint256"
        },
        {
          "internalType": "uint256",
          "name": "",
          "type": "uint256"
        },
        {
          "internalType": "uint256",
          "name": "",
          "type": "uint256"
        },
        {
          "components": [
            {
              "internalType": "bytes32",
              "name": "id",
              "type": "bytes32"
            },
            {
              "internalType": "string",
              "name": "name",
              "type": "string"
            },
            {
              "internalType": "uint256",
              "name": "date",
              "type": "uint256"
            },
            {
              "internalType": "string",
              "name": "category",
              "type": "string"
            },
            {
              "internalType": "bool",
              "name": "isDispatch",
              "type": "bool"
            },
            {
              "internalType": "address",
              "name": "owner",
              "type": "address"
            },
            {
              "internalType": "string",
              "name": "ownerName",
              "type": "string"
            }
          ],
          "internalType": "struct ProductTrack.customProductReturn[]",
          "name": "",
          "type": "tuple[]"
        }
      ],
      "stateMutability": "view",
      "type": "function",
      "constant": true
    },
    {
      "inputs": [
        {
          "internalType": "string",
          "name": "_name",
          "type": "string"
        },
        {
          "internalType": "string",
          "name": "_category",
          "type": "string"
        }
      ],
      "name": "addProduct",
      "outputs": [
        {
          "internalType": "bytes32",
          "name": "",
          "type": "bytes32"
        }
      ],
      "stateMutability": "nonpayable",
      "type": "function"
    },
    {
      "inputs": [
        {
          "internalType": "bytes32",
          "name": "uid",
          "type": "bytes32"
        },
        {
          "internalType": "address",
          "name": "newOwner",
          "type": "address"
        },
        {
          "internalType": "string",
          "name": "newOwnerName",
          "type": "string"
        }
      ],
      "name": "updateOwner",
      "outputs": [],
      "stateMutability": "nonpayable",
      "type": "function"
    },
    {
      "inputs": [
        {
          "internalType": "bytes32",
          "name": "uid",
          "type": "bytes32"
        }
      ],
      "name": "getProduct",
      "outputs": [
        {
          "components": [
            {
              "internalType": "bytes32",
              "name": "id",
              "type": "bytes32"
            },
            {
              "internalType": "string",
              "name": "name",
              "type": "string"
            },
            {
              "internalType": "uint256",
              "name": "date",
              "type": "uint256"
            },
            {
              "internalType": "string",
              "name": "category",
              "type": "string"
            },
            {
              "internalType": "bool",
              "name": "isDispatch",
              "type": "bool"
            },
            {
              "internalType": "address",
              "name": "owner",
              "type": "address"
            },
            {
              "internalType": "string",
              "name": "ownerName",
              "type": "string"
            }
          ],
          "internalType": "struct ProductTrack.customProductReturn",
          "name": "",
          "type": "tuple"
        }
      ],
      "stateMutability": "view",
      "type": "function",
      "constant": true
    },
    {
      "inputs": [],
      "name": "getAllProducts",
      "outputs": [
        {
          "components": [
            {
              "internalType": "bytes32",
              "name": "id",
              "type": "bytes32"
            },
            {
              "internalType": "string",
              "name": "name",
              "type": "string"
            },
            {
              "internalType": "uint256",
              "name": "date",
              "type": "uint256"
            },
            {
              "internalType": "string",
              "name": "category",
              "type": "string"
            },
            {
              "internalType": "bool",
              "name": "isDispatch",
              "type": "bool"
            },
            {
              "internalType": "address",
              "name": "owner",
              "type": "address"
            },
            {
              "internalType": "string",
              "name": "ownerName",
              "type": "string"
            }
          ],
          "internalType": "struct ProductTrack.customProductReturn[]",
          "name": "retProducts",
          "type": "tuple[]"
        }
      ],
      "stateMutability": "view",
      "type": "function",
      "constant": true
    },
    {
      "inputs": [
        {
          "internalType": "bytes32",
          "name": "_id",
          "type": "bytes32"
        }
      ],
      "name": "dispatchProduct",
      "outputs": [],
      "stateMutability": "nonpayable",
      "type": "function"
    },
    {
      "inputs": [
        {
          "internalType": "address",
          "name": "id",
          "type": "address"
        },
        {
          "internalType": "string",
          "name": "_name",
          "type": "string"
        },
        {
          "internalType": "string",
          "name": "_email",
          "type": "string"
        },
        {
          "internalType": "string",
          "name": "_companyName",
          "type": "string"
        },
        {
          "internalType": "string",
          "name": "_city",
          "type": "string"
        },
        {
          "internalType": "string",
          "name": "_state",
          "type": "string"
        },
        {
          "internalType": "uint256",
          "name": "_pincode",
          "type": "uint256"
        },
        {
          "internalType": "bool",
          "name": "update",
          "type": "bool"
        }
      ],
      "name": "addMerchants",
      "outputs": [],
      "stateMutability": "nonpayable",
      "type": "function"
    },
    {
      "inputs": [],
      "name": "getAllMerchants",
      "outputs": [
        {
          "components": [
            {
              "internalType": "address",
              "name": "id",
              "type": "address"
            },
            {
              "internalType": "string",
              "name": "name",
              "type": "string"
            },
            {
              "internalType": "string",
              "name": "companyName",
              "type": "string"
            },
            {
              "internalType": "string",
              "name": "email",
              "type": "string"
            },
            {
              "internalType": "uint256",
              "name": "joiningDate",
              "type": "uint256"
            },
            {
              "internalType": "string",
              "name": "state",
              "type": "string"
            },
            {
              "internalType": "string",
              "name": "city",
              "type": "string"
            },
            {
              "internalType": "uint256",
              "name": "pincode",
              "type": "uint256"
            }
          ],
          "internalType": "struct ProductTrack.Merchant[]",
          "name": "",
          "type": "tuple[]"
        }
      ],
      "stateMutability": "view",
      "type": "function",
      "constant": true
    },
    {
      "inputs": [
        {
          "internalType": "address",
          "name": "_id",
          "type": "address"
        }
      ],
      "name": "getMerchant",
      "outputs": [
        {
          "components": [
            {
              "internalType": "address",
              "name": "id",
              "type": "address"
            },
            {
              "internalType": "string",
              "name": "name",
              "type": "string"
            },
            {
              "internalType": "string",
              "name": "companyName",
              "type": "string"
            },
            {
              "internalType": "string",
              "name": "email",
              "type": "string"
            },
            {
              "internalType": "uint256",
              "name": "joiningDate",
              "type": "uint256"
            },
            {
              "internalType": "string",
              "name": "state",
              "type": "string"
            },
            {
              "internalType": "string",
              "name": "city",
              "type": "string"
            },
            {
              "internalType": "uint256",
              "name": "pincode",
              "type": "uint256"
            }
          ],
          "internalType": "struct ProductTrack.Merchant",
          "name": "",
          "type": "tuple"
        }
      ],
      "stateMutability": "view",
      "type": "function",
      "constant": true
    },
    {
      "inputs": [
        {
          "internalType": "address",
          "name": "_id",
          "type": "address"
        }
      ],
      "name": "verifyMerchant",
      "outputs": [
        {
          "internalType": "bool",
          "name": "",
          "type": "bool"
        }
      ],
      "stateMutability": "view",
      "type": "function",
      "constant": true
    },
    {
      "inputs": [
        {
          "internalType": "bytes32",
          "name": "_productId",
          "type": "bytes32"
        },
        {
          "internalType": "address",
          "name": "_merchantId",
          "type": "address"
        }
      ],
      "name": "updateTrack",
      "outputs": [],
      "stateMutability": "nonpayable",
      "type": "function"
    },
    {
      "inputs": [
        {
          "internalType": "bytes32",
          "name": "_productId",
          "type": "bytes32"
        }
      ],
      "name": "getTracks",
      "outputs": [
        {
          "components": [
            {
              "internalType": "address",
              "name": "id",
              "type": "address"
            },
            {
              "internalType": "string",
              "name": "name",
              "type": "string"
            },
            {
              "internalType": "string",
              "name": "companyName",
              "type": "string"
            },
            {
              "internalType": "string",
              "name": "email",
              "type": "string"
            },
            {
              "internalType": "uint256",
              "name": "joiningDate",
              "type": "uint256"
            },
            {
              "internalType": "string",
              "name": "state",
              "type": "string"
            },
            {
              "internalType": "string",
              "name": "city",
              "type": "string"
            },
            {
              "internalType": "uint256",
              "name": "pincode",
              "type": "uint256"
            }
          ],
          "internalType": "struct ProductTrack.Merchant[]",
          "name": "",
          "type": "tuple[]"
        },
        {
          "internalType": "uint256[]",
          "name": "",
          "type": "uint256[]"
        }
      ],
      "stateMutability": "view",
      "type": "function",
      "constant": true
    }
  ],
  "bytecode": "0x60806040526000600155600060025534801561001a57600080fd5b50336000806101000a81548173ffffffffffffffffffffffffffffffffffffffff021916908373ffffffffffffffffffffffffffffffffffffffff160217905550613d0a8061006a6000396000f3fe608060405234801561001057600080fd5b50600436106100ea5760003560e01c8063a121faa31161008c578063bebbe13d11610066578063bebbe13d1461025e578063ca2efb551461027a578063d9708d48146102aa578063f10673af146102cc576100ea565b8063a121faa3146101e2578063b2734eaf146101fe578063b411ee941461022e576100ea565b80634e66d60a116100c85780634e66d60a1461016e5780638ce2df511461018a5780638f22be58146101a85780638f32d59b146101c4576100ea565b806302ee3a52146100ef57806308490ff31461010d5780633a20e9df1461013e575b600080fd5b6100f76102fc565b6040516101049190612d5d565b60405180910390f35b61012760048036038101906101229190612dbf565b610751565b604051610135929190613029565b60405180910390f35b61015860048036038101906101539190612dbf565b610ca9565b604051610165919061310a565b60405180910390f35b6101886004803603810190610183919061328d565b610f52565b005b61019261108c565b60405161019f91906132fc565b60405180910390f35b6101c260048036038101906101bd919061331e565b611501565b005b6101cc6115da565b6040516101d9919061336d565b60405180910390f35b6101fc60048036038101906101f79190612dbf565b611631565b005b61021860048036038101906102139190613388565b61170c565b6040516102259190613481565b60405180910390f35b610248600480360381019061024391906134a3565b611aaa565b60405161025591906134fb565b60405180910390f35b6102786004803603810190610273919061356e565b611ada565b005b610294600480360381019061028f91906136b0565b611d36565b6040516102a191906134fb565b60405180910390f35b6102b2611fd2565b6040516102c3959493929190613737565b60405180910390f35b6102e660048036038101906102e19190613388565b612976565b6040516102f3919061336d565b60405180910390f35b6060600060058054905067ffffffffffffffff81111561031f5761031e613162565b5b60405190808252806020026020018201604052801561035857816020015b610345612a20565b81526020019060019003908161033d5790505b50905060005b600580549050811015610749576000600360006005848154811061038557610384613791565b5b9060005260206000200154815260200190815260200160002060405180610120016040529081600082015481526020016001820180546103c4906137ef565b80601f01602080910402602001604051908101604052809291908181526020018280546103f0906137ef565b801561043d5780601f106104125761010080835404028352916020019161043d565b820191906000526020600020905b81548152906001019060200180831161042057829003601f168201915b5050505050815260200160028201548152602001600382018054610460906137ef565b80601f016020809104026020016040519081016040528092919081815260200182805461048c906137ef565b80156104d95780601f106104ae576101008083540402835291602001916104d9565b820191906000526020600020905b8154815290600101906020018083116104bc57829003601f168201915b505050505081526020016004820160009054906101000a900460ff16151515158152602001600582015481526020016006820160009054906101000a900473ffffffffffffffffffffffffffffffffffffffff1673ffffffffffffffffffffffffffffffffffffffff1673ffffffffffffffffffffffffffffffffffffffff16815260200160078201805461056d906137ef565b80601f0160208091040260200160405190810160405280929190818152602001828054610599906137ef565b80156105e65780601f106105bb576101008083540402835291602001916105e6565b820191906000526020600020905b8154815290600101906020018083116105c957829003601f168201915b5050505050815260200160088201805480602002602001604051908101604052809291908181526020016000905b828210156106a657838290600052602060002090600202016040518060400160405290816000820160009054906101000a900473ffffffffffffffffffffffffffffffffffffffff1673ffffffffffffffffffffffffffffffffffffffff1673ffffffffffffffffffffffffffffffffffffffff16815260200160018201548152505081526020019060010190610614565b505050508152505090506040518060e00160405280826000015181526020018260200151815260200182604001518152602001826060015181526020018260800151151581526020018260c0015173ffffffffffffffffffffffffffffffffffffffff1681526020018260e0015181525083838151811061072a57610729613791565b5b60200260200101819052505080806107419061384f565b91505061035e565b508091505090565b60608060006003600085815260200190815260200160002060080180549050905060008167ffffffffffffffff81111561078e5761078d613162565b5b6040519080825280602002602001820160405280156107c757816020015b6107b4612a78565b8152602001906001900390816107ac5790505b50905060008267ffffffffffffffff8111156107e6576107e5613162565b5b6040519080825280602002602001820160405280156108145781602001602082028036833780820191505090505b50905060005b83811015610c9a57600060036000898152602001908152602001600020600801828154811061084c5761084b613791565b5b906000526020600020906002020160000160009054906101000a900473ffffffffffffffffffffffffffffffffffffffff169050600460008273ffffffffffffffffffffffffffffffffffffffff1673ffffffffffffffffffffffffffffffffffffffff168152602001908152602001600020604051806101000160405290816000820160009054906101000a900473ffffffffffffffffffffffffffffffffffffffff1673ffffffffffffffffffffffffffffffffffffffff1673ffffffffffffffffffffffffffffffffffffffff168152602001600182018054610931906137ef565b80601f016020809104026020016040519081016040528092919081815260200182805461095d906137ef565b80156109aa5780601f1061097f576101008083540402835291602001916109aa565b820191906000526020600020905b81548152906001019060200180831161098d57829003601f168201915b505050505081526020016002820180546109c3906137ef565b80601f01602080910402602001604051908101604052809291908181526020018280546109ef906137ef565b8015610a3c5780601f10610a1157610100808354040283529160200191610a3c565b820191906000526020600020905b815481529060010190602001808311610a1f57829003601f168201915b50505050508152602001600382018054610a55906137ef565b80601f0160208091040260200160405190810160405280929190818152602001828054610a81906137ef565b8015610ace5780601f10610aa357610100808354040283529160200191610ace565b820191906000526020600020905b815481529060010190602001808311610ab157829003601f168201915b5050505050815260200160048201548152602001600582018054610af1906137ef565b80601f0160208091040260200160405190810160405280929190818152602001828054610b1d906137ef565b8015610b6a5780601f10610b3f57610100808354040283529160200191610b6a565b820191906000526020600020905b815481529060010190602001808311610b4d57829003601f168201915b50505050508152602001600682018054610b83906137ef565b80601f0160208091040260200160405190810160405280929190818152602001828054610baf906137ef565b8015610bfc5780601f10610bd157610100808354040283529160200191610bfc565b820191906000526020600020905b815481529060010190602001808311610bdf57829003601f168201915b50505050508152602001600782015481525050848381518110610c2257610c21613791565b5b6020026020010181905250600360008981526020019081526020016000206008018281548110610c5557610c54613791565b5b906000526020600020906002020160010154838381518110610c7a57610c79613791565b5b602002602001018181525050508080610c929061384f565b91505061081a565b50818194509450505050915091565b610cb1612a20565b60006040518060e00160405280848152602001600360008681526020019081526020016000206001018054610ce5906137ef565b80601f0160208091040260200160405190810160405280929190818152602001828054610d11906137ef565b8015610d5e5780601f10610d3357610100808354040283529160200191610d5e565b820191906000526020600020905b815481529060010190602001808311610d4157829003601f168201915b5050505050815260200160036000868152602001908152602001600020600201548152602001600360008681526020019081526020016000206003018054610da5906137ef565b80601f0160208091040260200160405190810160405280929190818152602001828054610dd1906137ef565b8015610e1e5780601f10610df357610100808354040283529160200191610e1e565b820191906000526020600020905b815481529060010190602001808311610e0157829003601f168201915b505050505081526020016003600086815260200190815260200160002060040160009054906101000a900460ff16151581526020016003600086815260200190815260200160002060060160009054906101000a900473ffffffffffffffffffffffffffffffffffffffff1673ffffffffffffffffffffffffffffffffffffffff168152602001600360008681526020019081526020016000206007018054610ec6906137ef565b80601f0160208091040260200160405190810160405280929190818152602001828054610ef2906137ef565b8015610f3f5780601f10610f1457610100808354040283529160200191610f3f565b820191906000526020600020905b815481529060010190602001808311610f2257829003601f168201915b5050505050815250905080915050919050565b6003600084815260200190815260200160002060060160009054906101000a900473ffffffffffffffffffffffffffffffffffffffff1673ffffffffffffffffffffffffffffffffffffffff163373ffffffffffffffffffffffffffffffffffffffff1614610ff6576040517f08c379a0000000000000000000000000000000000000000000000000000000008152600401610fed9061391a565b60405180910390fd5b600260008154809291906110099061384f565b9190505550816003600085815260200190815260200160002060060160006101000a81548173ffffffffffffffffffffffffffffffffffffffff021916908373ffffffffffffffffffffffffffffffffffffffff160217905550806003600085815260200190815260200160002060070190816110869190613ae6565b50505050565b6060600060068054905067ffffffffffffffff8111156110af576110ae613162565b5b6040519080825280602002602001820160405280156110e857816020015b6110d5612a78565b8152602001906001900390816110cd5790505b50905060005b6006805490508110156114f957600460006006838154811061111357611112613791565b5b9060005260206000200160009054906101000a900473ffffffffffffffffffffffffffffffffffffffff1673ffffffffffffffffffffffffffffffffffffffff1673ffffffffffffffffffffffffffffffffffffffff168152602001908152602001600020604051806101000160405290816000820160009054906101000a900473ffffffffffffffffffffffffffffffffffffffff1673ffffffffffffffffffffffffffffffffffffffff1673ffffffffffffffffffffffffffffffffffffffff1681526020016001820180546111ea906137ef565b80601f0160208091040260200160405190810160405280929190818152602001828054611216906137ef565b80156112635780601f1061123857610100808354040283529160200191611263565b820191906000526020600020905b81548152906001019060200180831161124657829003601f168201915b5050505050815260200160028201805461127c906137ef565b80601f01602080910402602001604051908101604052809291908181526020018280546112a8906137ef565b80156112f55780601f106112ca576101008083540402835291602001916112f5565b820191906000526020600020905b8154815290600101906020018083116112d857829003601f168201915b5050505050815260200160038201805461130e906137ef565b80601f016020809104026020016040519081016040528092919081815260200182805461133a906137ef565b80156113875780601f1061135c57610100808354040283529160200191611387565b820191906000526020600020905b81548152906001019060200180831161136a57829003601f168201915b50505050508152602001600482015481526020016005820180546113aa906137ef565b80601f01602080910402602001604051908101604052809291908181526020018280546113d6906137ef565b80156114235780601f106113f857610100808354040283529160200191611423565b820191906000526020600020905b81548152906001019060200180831161140657829003601f168201915b5050505050815260200160068201805461143c906137ef565b80601f0160208091040260200160405190810160405280929190818152602001828054611468906137ef565b80156114b55780601f1061148a576101008083540402835291602001916114b5565b820191906000526020600020905b81548152906001019060200180831161149857829003601f168201915b505050505081526020016007820154815250508282815181106114db576114da613791565b5b602002602001018190525080806114f19061384f565b9150506110ee565b508091505090565b6003600083815260200190815260200160002060080160405180604001604052808373ffffffffffffffffffffffffffffffffffffffff16815260200142815250908060018154018082558091505060019003906000526020600020906002020160009091909190915060008201518160000160006101000a81548173ffffffffffffffffffffffffffffffffffffffff021916908373ffffffffffffffffffffffffffffffffffffffff160217905550602082015181600101555050600160008154809291906115d19061384f565b91905055505050565b60008060009054906101000a900473ffffffffffffffffffffffffffffffffffffffff1673ffffffffffffffffffffffffffffffffffffffff163373ffffffffffffffffffffffffffffffffffffffff1614905090565b60008054906101000a900473ffffffffffffffffffffffffffffffffffffffff1673ffffffffffffffffffffffffffffffffffffffff163373ffffffffffffffffffffffffffffffffffffffff16146116bf576040517f08c379a00000000000000000000000000000000000000000000000000000000081526004016116b690613c04565b60405180910390fd5b60016003600083815260200190815260200160002060040160006101000a81548160ff02191690831515021790555042600360008381526020019081526020016000206005018190555050565b611714612a78565b600460008373ffffffffffffffffffffffffffffffffffffffff1673ffffffffffffffffffffffffffffffffffffffff168152602001908152602001600020604051806101000160405290816000820160009054906101000a900473ffffffffffffffffffffffffffffffffffffffff1673ffffffffffffffffffffffffffffffffffffffff1673ffffffffffffffffffffffffffffffffffffffff1681526020016001820180546117c5906137ef565b80601f01602080910402602001604051908101604052809291908181526020018280546117f1906137ef565b801561183e5780601f106118135761010080835404028352916020019161183e565b820191906000526020600020905b81548152906001019060200180831161182157829003601f168201915b50505050508152602001600282018054611857906137ef565b80601f0160208091040260200160405190810160405280929190818152602001828054611883906137ef565b80156118d05780601f106118a5576101008083540402835291602001916118d0565b820191906000526020600020905b8154815290600101906020018083116118b357829003601f168201915b505050505081526020016003820180546118e9906137ef565b80601f0160208091040260200160405190810160405280929190818152602001828054611915906137ef565b80156119625780601f1061193757610100808354040283529160200191611962565b820191906000526020600020905b81548152906001019060200180831161194557829003601f168201915b5050505050815260200160048201548152602001600582018054611985906137ef565b80601f01602080910402602001604051908101604052809291908181526020018280546119b1906137ef565b80156119fe5780601f106119d3576101008083540402835291602001916119fe565b820191906000526020600020905b8154815290600101906020018083116119e157829003601f168201915b50505050508152602001600682018054611a17906137ef565b80601f0160208091040260200160405190810160405280929190818152602001828054611a43906137ef565b8015611a905780601f10611a6557610100808354040283529160200191611a90565b820191906000526020600020905b815481529060010190602001808311611a7357829003601f168201915b505050505081526020016007820154815250509050919050565b600081604051602001611abd9190613c60565b604051602081830303815290604052805190602001209050919050565b60008054906101000a900473ffffffffffffffffffffffffffffffffffffffff1673ffffffffffffffffffffffffffffffffffffffff163373ffffffffffffffffffffffffffffffffffffffff1614611b68576040517f08c379a0000000000000000000000000000000000000000000000000000000008152600401611b5f90613c04565b60405180910390fd5b80611bd1576006889080600181540180825580915050600190039060005260206000200160009091909190916101000a81548173ffffffffffffffffffffffffffffffffffffffff021916908373ffffffffffffffffffffffffffffffffffffffff1602179055505b6040518061010001604052808973ffffffffffffffffffffffffffffffffffffffff16815260200188815260200186815260200187815260200142815260200184815260200185815260200183815250600460008a73ffffffffffffffffffffffffffffffffffffffff1673ffffffffffffffffffffffffffffffffffffffff16815260200190815260200160002060008201518160000160006101000a81548173ffffffffffffffffffffffffffffffffffffffff021916908373ffffffffffffffffffffffffffffffffffffffff1602179055506020820151816001019081611cbc9190613ae6565b506040820151816002019081611cd29190613ae6565b506060820151816003019081611ce89190613ae6565b506080820151816004015560a0820151816005019081611d089190613ae6565b5060c0820151816006019081611d1e9190613ae6565b5060e082015181600701559050505050505050505050565b60008060009054906101000a900473ffffffffffffffffffffffffffffffffffffffff1673ffffffffffffffffffffffffffffffffffffffff163373ffffffffffffffffffffffffffffffffffffffff1614611dc7576040517f08c379a0000000000000000000000000000000000000000000000000000000008152600401611dbe90613c04565b60405180910390fd5b6000611dd284611aaa565b9050600581908060018154018082558091505060019003906000526020600020016000909190919091505580600360008381526020019081526020016000206000018190555083600360008381526020019081526020016000206001019081611e3b9190613ae6565b5042600360008381526020019081526020016000206002018190555082600360008381526020019081526020016000206003019081611e7a9190613ae6565b5060006003600083815260200190815260200160002060040160006101000a81548160ff0219169083151502179055506000600360008381526020019081526020016000206005018190555060008054906101000a900473ffffffffffffffffffffffffffffffffffffffff166003600083815260200190815260200160002060060160006101000a81548173ffffffffffffffffffffffffffffffffffffffff021916908373ffffffffffffffffffffffffffffffffffffffff1602179055506040518060400160405280600581526020017f61646d696e000000000000000000000000000000000000000000000000000000815250600360008381526020019081526020016000206007019081611f939190613ae6565b507fa41d754d5a46ea42f2209234a7fd41bd56d3f4d82bff5600981586ea6ddcdc3881604051611fc391906134fb565b60405180910390a15092915050565b600080600080606060008054906101000a900473ffffffffffffffffffffffffffffffffffffffff1673ffffffffffffffffffffffffffffffffffffffff163373ffffffffffffffffffffffffffffffffffffffff1614612068576040517f08c379a000000000000000000000000000000000000000000000000000000000815260040161205f90613c04565b60405180910390fd5b600060058054905090506003811115612503576000600367ffffffffffffffff81111561209857612097613162565b5b6040519080825280602002602001820160405280156120d157816020015b6120be612a20565b8152602001906001900390816120b65790505b50905060006001836120e39190613c77565b905060005b60038110156124dd576000600360006005858154811061210b5761210a613791565b5b90600052602060002001548152602001908152602001600020604051806101200160405290816000820154815260200160018201805461214a906137ef565b80601f0160208091040260200160405190810160405280929190818152602001828054612176906137ef565b80156121c35780601f10612198576101008083540402835291602001916121c3565b820191906000526020600020905b8154815290600101906020018083116121a657829003601f168201915b50505050508152602001600282015481526020016003820180546121e6906137ef565b80601f0160208091040260200160405190810160405280929190818152602001828054612212906137ef565b801561225f5780601f106122345761010080835404028352916020019161225f565b820191906000526020600020905b81548152906001019060200180831161224257829003601f168201915b505050505081526020016004820160009054906101000a900460ff16151515158152602001600582015481526020016006820160009054906101000a900473ffffffffffffffffffffffffffffffffffffffff1673ffffffffffffffffffffffffffffffffffffffff1673ffffffffffffffffffffffffffffffffffffffff1681526020016007820180546122f3906137ef565b80601f016020809104026020016040519081016040528092919081815260200182805461231f906137ef565b801561236c5780601f106123415761010080835404028352916020019161236c565b820191906000526020600020905b81548152906001019060200180831161234f57829003601f168201915b5050505050815260200160088201805480602002602001604051908101604052809291908181526020016000905b8282101561242c57838290600052602060002090600202016040518060400160405290816000820160009054906101000a900473ffffffffffffffffffffffffffffffffffffffff1673ffffffffffffffffffffffffffffffffffffffff1673ffffffffffffffffffffffffffffffffffffffff1681526020016001820154815250508152602001906001019061239a565b505050508152505090506040518060e00160405280826000015181526020018260200151815260200182604001518152602001826060015181526020018260800151151581526020018260c0015173ffffffffffffffffffffffffffffffffffffffff1681526020018260e001518152508483815181106124b0576124af613791565b5b602002602001018190525082806124c690613cab565b93505081806124d49061384f565b925050506120e8565b60058054905060068054905060015460025486985098509850985098505050505061296f565b600060058054905067ffffffffffffffff81111561252457612523613162565b5b60405190808252806020026020018201604052801561255d57816020015b61254a612a20565b8152602001906001900390816125425790505b50905060005b60058054905081101561294e576000600360006005848154811061258a57612589613791565b5b9060005260206000200154815260200190815260200160002060405180610120016040529081600082015481526020016001820180546125c9906137ef565b80601f01602080910402602001604051908101604052809291908181526020018280546125f5906137ef565b80156126425780601f1061261757610100808354040283529160200191612642565b820191906000526020600020905b81548152906001019060200180831161262557829003601f168201915b5050505050815260200160028201548152602001600382018054612665906137ef565b80601f0160208091040260200160405190810160405280929190818152602001828054612691906137ef565b80156126de5780601f106126b3576101008083540402835291602001916126de565b820191906000526020600020905b8154815290600101906020018083116126c157829003601f168201915b505050505081526020016004820160009054906101000a900460ff16151515158152602001600582015481526020016006820160009054906101000a900473ffffffffffffffffffffffffffffffffffffffff1673ffffffffffffffffffffffffffffffffffffffff1673ffffffffffffffffffffffffffffffffffffffff168152602001600782018054612772906137ef565b80601f016020809104026020016040519081016040528092919081815260200182805461279e906137ef565b80156127eb5780601f106127c0576101008083540402835291602001916127eb565b820191906000526020600020905b8154815290600101906020018083116127ce57829003601f168201915b5050505050815260200160088201805480602002602001604051908101604052809291908181526020016000905b828210156128ab57838290600052602060002090600202016040518060400160405290816000820160009054906101000a900473ffffffffffffffffffffffffffffffffffffffff1673ffffffffffffffffffffffffffffffffffffffff1673ffffffffffffffffffffffffffffffffffffffff16815260200160018201548152505081526020019060010190612819565b505050508152505090506040518060e00160405280826000015181526020018260200151815260200182604001518152602001826060015181526020018260800151151581526020018260c0015173ffffffffffffffffffffffffffffffffffffffff1681526020018260e0015181525083838151811061292f5761292e613791565b5b60200260200101819052505080806129469061384f565b915050612563565b50600580549050600680549050600154600254849650965096509650965050505b9091929394565b60008173ffffffffffffffffffffffffffffffffffffffff16600460008473ffffffffffffffffffffffffffffffffffffffff1673ffffffffffffffffffffffffffffffffffffffff16815260200190815260200160002060000160009054906101000a900473ffffffffffffffffffffffffffffffffffffffff1673ffffffffffffffffffffffffffffffffffffffff1603612a165760019050612a1b565b600090505b919050565b6040518060e0016040528060008019168152602001606081526020016000815260200160608152602001600015158152602001600073ffffffffffffffffffffffffffffffffffffffff168152602001606081525090565b604051806101000160405280600073ffffffffffffffffffffffffffffffffffffffff168152602001606081526020016060815260200160608152602001600081526020016060815260200160608152602001600081525090565b600081519050919050565b600082825260208201905092915050565b6000819050602082019050919050565b6000819050919050565b612b1281612aff565b82525050565b600081519050919050565b600082825260208201905092915050565b60005b83811015612b52578082015181840152602081019050612b37565b60008484015250505050565b6000601f19601f8301169050919050565b6000612b7a82612b18565b612b848185612b23565b9350612b94818560208601612b34565b612b9d81612b5e565b840191505092915050565b6000819050919050565b612bbb81612ba8565b82525050565b60008115159050919050565b612bd681612bc1565b82525050565b600073ffffffffffffffffffffffffffffffffffffffff82169050919050565b6000612c0782612bdc565b9050919050565b612c1781612bfc565b82525050565b600060e083016000830151612c356000860182612b09565b5060208301518482036020860152612c4d8282612b6f565b9150506040830151612c626040860182612bb2565b5060608301518482036060860152612c7a8282612b6f565b9150506080830151612c8f6080860182612bcd565b5060a0830151612ca260a0860182612c0e565b5060c083015184820360c0860152612cba8282612b6f565b9150508091505092915050565b6000612cd38383612c1d565b905092915050565b6000602082019050919050565b6000612cf382612ad3565b612cfd8185612ade565b935083602082028501612d0f85612aef565b8060005b85811015612d4b5784840389528151612d2c8582612cc7565b9450612d3783612cdb565b925060208a01995050600181019050612d13565b50829750879550505050505092915050565b60006020820190508181036000830152612d778184612ce8565b905092915050565b6000604051905090565b600080fd5b600080fd5b612d9c81612aff565b8114612da757600080fd5b50565b600081359050612db981612d93565b92915050565b600060208284031215612dd557612dd4612d89565b5b6000612de384828501612daa565b91505092915050565b600081519050919050565b600082825260208201905092915050565b6000819050602082019050919050565b600061010083016000830151612e316000860182612c0e565b5060208301518482036020860152612e498282612b6f565b91505060408301518482036040860152612e638282612b6f565b91505060608301518482036060860152612e7d8282612b6f565b9150506080830151612e926080860182612bb2565b5060a083015184820360a0860152612eaa8282612b6f565b91505060c083015184820360c0860152612ec48282612b6f565b91505060e0830151612ed960e0860182612bb2565b508091505092915050565b6000612ef08383612e18565b905092915050565b6000602082019050919050565b6000612f1082612dec565b612f1a8185612df7565b935083602082028501612f2c85612e08565b8060005b85811015612f685784840389528151612f498582612ee4565b9450612f5483612ef8565b925060208a01995050600181019050612f30565b50829750879550505050505092915050565b600081519050919050565b600082825260208201905092915050565b6000819050602082019050919050565b6000612fb28383612bb2565b60208301905092915050565b6000602082019050919050565b6000612fd682612f7a565b612fe08185612f85565b9350612feb83612f96565b8060005b8381101561301c5781516130038882612fa6565b975061300e83612fbe565b925050600181019050612fef565b5085935050505092915050565b600060408201905081810360008301526130438185612f05565b905081810360208301526130578184612fcb565b90509392505050565b600060e0830160008301516130786000860182612b09565b50602083015184820360208601526130908282612b6f565b91505060408301516130a56040860182612bb2565b50606083015184820360608601526130bd8282612b6f565b91505060808301516130d26080860182612bcd565b5060a08301516130e560a0860182612c0e565b5060c083015184820360c08601526130fd8282612b6f565b9150508091505092915050565b600060208201905081810360008301526131248184613060565b905092915050565b61313581612bfc565b811461314057600080fd5b50565b6000813590506131528161312c565b92915050565b600080fd5b600080fd5b7f4e487b7100000000000000000000000000000000000000000000000000000000600052604160045260246000fd5b61319a82612b5e565b810181811067ffffffffffffffff821117156131b9576131b8613162565b5b80604052505050565b60006131cc612d7f565b90506131d88282613191565b919050565b600067ffffffffffffffff8211156131f8576131f7613162565b5b61320182612b5e565b9050602081019050919050565b82818337600083830152505050565b600061323061322b846131dd565b6131c2565b90508281526020810184848401111561324c5761324b61315d565b5b61325784828561320e565b509392505050565b600082601f83011261327457613273613158565b5b813561328484826020860161321d565b91505092915050565b6000806000606084860312156132a6576132a5612d89565b5b60006132b486828701612daa565b93505060206132c586828701613143565b925050604084013567ffffffffffffffff8111156132e6576132e5612d8e565b5b6132f28682870161325f565b9150509250925092565b600060208201905081810360008301526133168184612f05565b905092915050565b6000806040838503121561333557613334612d89565b5b600061334385828601612daa565b925050602061335485828601613143565b9150509250929050565b61336781612bc1565b82525050565b6000602082019050613382600083018461335e565b92915050565b60006020828403121561339e5761339d612d89565b5b60006133ac84828501613143565b91505092915050565b6000610100830160008301516133ce6000860182612c0e565b50602083015184820360208601526133e68282612b6f565b915050604083015184820360408601526134008282612b6f565b9150506060830151848203606086015261341a8282612b6f565b915050608083015161342f6080860182612bb2565b5060a083015184820360a08601526134478282612b6f565b91505060c083015184820360c08601526134618282612b6f565b91505060e083015161347660e0860182612bb2565b508091505092915050565b6000602082019050818103600083015261349b81846133b5565b905092915050565b6000602082840312156134b9576134b8612d89565b5b600082013567ffffffffffffffff8111156134d7576134d6612d8e565b5b6134e38482850161325f565b91505092915050565b6134f581612aff565b82525050565b600060208201905061351060008301846134ec565b92915050565b61351f81612ba8565b811461352a57600080fd5b50565b60008135905061353c81613516565b92915050565b61354b81612bc1565b811461355657600080fd5b50565b60008135905061356881613542565b92915050565b600080600080600080600080610100898b03121561358f5761358e612d89565b5b600061359d8b828c01613143565b985050602089013567ffffffffffffffff8111156135be576135bd612d8e565b5b6135ca8b828c0161325f565b975050604089013567ffffffffffffffff8111156135eb576135ea612d8e565b5b6135f78b828c0161325f565b965050606089013567ffffffffffffffff81111561361857613617612d8e565b5b6136248b828c0161325f565b955050608089013567ffffffffffffffff81111561364557613644612d8e565b5b6136518b828c0161325f565b94505060a089013567ffffffffffffffff81111561367257613671612d8e565b5b61367e8b828c0161325f565b93505060c061368f8b828c0161352d565b92505060e06136a08b828c01613559565b9150509295985092959890939650565b600080604083850312156136c7576136c6612d89565b5b600083013567ffffffffffffffff8111156136e5576136e4612d8e565b5b6136f18582860161325f565b925050602083013567ffffffffffffffff81111561371257613711612d8e565b5b61371e8582860161325f565b9150509250929050565b61373181612ba8565b82525050565b600060a08201905061374c6000830188613728565b6137596020830187613728565b6137666040830186613728565b6137736060830185613728565b81810360808301526137858184612ce8565b90509695505050505050565b7f4e487b7100000000000000000000000000000000000000000000000000000000600052603260045260246000fd5b7f4e487b7100000000000000000000000000000000000000000000000000000000600052602260045260246000fd5b6000600282049050600182168061380757607f821691505b60208210810361381a576138196137c0565b5b50919050565b7f4e487b7100000000000000000000000000000000000000000000000000000000600052601160045260246000fd5b600061385a82612ba8565b91507fffffffffffffffffffffffffffffffffffffffffffffffffffffffffffffffff820361388c5761388b613820565b5b600182019050919050565b600082825260208201905092915050565b7f536f727279204f6e6c79204f726967696e616c204f776e65722043616e20436860008201527f616e67652041204f776e65720000000000000000000000000000000000000000602082015250565b6000613904602c83613897565b915061390f826138a8565b604082019050919050565b60006020820190508181036000830152613933816138f7565b9050919050565b60008190508160005260206000209050919050565b60006020601f8301049050919050565b600082821b905092915050565b60006008830261399c7fffffffffffffffffffffffffffffffffffffffffffffffffffffffffffffffff8261395f565b6139a6868361395f565b95508019841693508086168417925050509392505050565b6000819050919050565b60006139e36139de6139d984612ba8565b6139be565b612ba8565b9050919050565b6000819050919050565b6139fd836139c8565b613a11613a09826139ea565b84845461396c565b825550505050565b600090565b613a26613a19565b613a318184846139f4565b505050565b5b81811015613a5557613a4a600082613a1e565b600181019050613a37565b5050565b601f821115613a9a57613a6b8161393a565b613a748461394f565b81016020851015613a83578190505b613a97613a8f8561394f565b830182613a36565b50505b505050565b600082821c905092915050565b6000613abd60001984600802613a9f565b1980831691505092915050565b6000613ad68383613aac565b9150826002028217905092915050565b613aef82612b18565b67ffffffffffffffff811115613b0857613b07613162565b5b613b1282546137ef565b613b1d828285613a59565b600060209050601f831160018114613b505760008415613b3e578287015190505b613b488582613aca565b865550613bb0565b601f198416613b5e8661393a565b60005b82811015613b8657848901518255600182019150602085019450602081019050613b61565b86831015613ba35784890151613b9f601f891682613aac565b8355505b6001600288020188555050505b505050505050565b7f6e6f7420746865206f776e657200000000000000000000000000000000000000600082015250565b6000613bee600d83613897565b9150613bf982613bb8565b602082019050919050565b60006020820190508181036000830152613c1d81613be1565b9050919050565b600081905092915050565b6000613c3a82612b18565b613c448185613c24565b9350613c54818560208601612b34565b80840191505092915050565b6000613c6c8284613c2f565b915081905092915050565b6000613c8282612ba8565b9150613c8d83612ba8565b9250828203905081811115613ca557613ca4613820565b5b92915050565b6000613cb682612ba8565b915060008203613cc957613cc8613820565b5b60018203905091905056fea2646970667358221220687d8379d9362ad823764aed751be1c1b983af888f96e73f022f04c471f7854264736f6c63430008110033",
  "immutableReferences": {},
  "source": "pragma solidity ^0.8.17; \n\ncontract ProductTrack {\n    address internal owner;\n    struct Track{\n        address merchantId;\n        uint date;\n    }\n\n    struct Product {\n        bytes32 id;\n        string name;\n        uint date;\n        string category;\n        bool isDispatch;\n        uint dispatchDate;\n        address owner;\n        string ownerName;\n        Track[] tracks;\n    }\n\n    struct Merchant {\n        address id;\n        string name;\n        string companyName;\n        string email;\n        uint joiningDate;\n        string state;\n        string city;\n        uint pincode;\n    }\n\n    struct customProductReturn {\n        bytes32 id;\n        string name;\n        uint date;\n        string category;\n        bool isDispatch;\n        address owner;\n        string ownerName;\n    }\n    constructor () {\n        owner = msg.sender;\n    }\n    modifier onlyOwner{\n        require(msg.sender==owner,\"not the owner\");\n        _;\n    }\n\n    uint tracksCount = 0;\n    uint ownershipTransferedCount = 0;\n    mapping (bytes32 => Product) private data;\n    mapping (address => Merchant) private merchantsData;\n    bytes32[] private keys;\n    address[] private merchantKeys;\n\n    event returnId(bytes32 id);\n\n    function isOwner() public view returns(bool){\n        return msg.sender == owner;\n    }\n\n    function hash(string memory _string) public pure returns(bytes32) {\n     return keccak256(abi.encodePacked(_string));\n    }\n\n    function getDashboardData() public view onlyOwner returns(uint,uint,uint,uint,customProductReturn[] memory){\n\n        uint len = keys.length;\n        if(len > 3)\n        {\n          customProductReturn[] memory resx = new customProductReturn[](3);\n          uint i = len - 1;\n          uint j = 0;\n          while(j < 3){\n            Product memory currPro = data[keys[i]];\n            resx[j] = (customProductReturn(currPro.id,currPro.name,currPro.date,currPro.category,currPro.isDispatch,currPro.owner,currPro.ownerName));\n            i--;\n            j++;\n         }\n         return (keys.length,merchantKeys.length,tracksCount,ownershipTransferedCount,resx);\n        }else{\n            customProductReturn[] memory res = new customProductReturn[](keys.length);\n            for(uint i = 0; i < keys.length; i++){\n                Product memory currPro = data[keys[i]];\n                res[i] = (customProductReturn(currPro.id,currPro.name,currPro.date,currPro.category,currPro.isDispatch,currPro.owner,currPro.ownerName));\n            }\n            return (keys.length,merchantKeys.length,tracksCount,ownershipTransferedCount,res);\n        }\n        \n    }\n\n    function addProduct(string memory _name,string memory _category) public onlyOwner returns(bytes32) {\n        bytes32 id = hash(_name);\n        keys.push(id);\n        data[id].id = id;\n        data[id].name = _name;\n        data[id].date = block.timestamp;\n        data[id].category = _category;\n        data[id].isDispatch = false;\n        data[id].dispatchDate = 0;\n        data[id].owner = owner;\n        data[id].ownerName = 'admin';\n        emit returnId(id);\n    }\n    \n    function updateOwner(bytes32 uid,address newOwner,string memory newOwnerName) public {\n        require(msg.sender == data[uid].owner,\"Sorry Only Original Owner Can Change A Owner\");\n        ownershipTransferedCount++;\n        data[uid].owner = newOwner;\n        data[uid].ownerName = newOwnerName;\n    }\n\n    function getProduct(bytes32 uid) public view returns(customProductReturn memory) {\n        customProductReturn memory ret = customProductReturn(uid,data[uid].name,data[uid].date,data[uid].category,data[uid].isDispatch,data[uid].owner,data[uid].ownerName);\n        return ret;\n    }\n\n    function getAllProducts() public view returns(customProductReturn[] memory retProducts){\n        customProductReturn[] memory pros = new customProductReturn[](keys.length);\n        for(uint i = 0; i < keys.length; i++){\n            Product memory currPro = data[keys[i]];\n            pros[i] = (customProductReturn(currPro.id,currPro.name,currPro.date,currPro.category,currPro.isDispatch,currPro.owner,currPro.ownerName));\n        }\n        return pros;\n    }\n\n    function dispatchProduct(bytes32 _id) public onlyOwner {\n        data[_id].isDispatch = true;\n        data[_id].dispatchDate = block.timestamp;\n    }\n\n    function addMerchants(address id,string memory _name,string memory _email,string memory _companyName,string memory _city,string memory _state,uint _pincode,bool update) public onlyOwner {\n        // bytes32 id = hash(_email);\n        if(!update) merchantKeys.push(id);\n        merchantsData[id] = Merchant(id,_name,_companyName,_email,block.timestamp,_state,_city,_pincode);\n    }\n\n    function getAllMerchants() public view returns(Merchant[] memory){\n        Merchant[] memory merchants = new Merchant[](merchantKeys.length);\n        for(uint i = 0; i < merchantKeys.length; i++){\n            merchants[i] = merchantsData[merchantKeys[i]];\n        }\n        return merchants;\n    }\n\n    function getMerchant(address _id) public view returns (Merchant memory){\n        return merchantsData[_id];\n    }\n    \n    function verifyMerchant(address _id) public view returns(bool){\n        if(merchantsData[_id].id == _id) return true;\n        return false;\n    }\n\n    function updateTrack(bytes32 _productId,address _merchantId) public {\n        data[_productId].tracks.push(Track(_merchantId,block.timestamp));\n        tracksCount++;\n    }\n\n    function getTracks(bytes32 _productId) public view returns(Merchant[] memory,uint[] memory) {\n        uint len = data[_productId].tracks.length;\n        Merchant[] memory resTracks = new Merchant[](len);\n        uint[] memory dateofTracks = new uint[](len);\n        for(uint i = 0; i < len; i++){\n            address currMerchant = data[_productId].tracks[i].merchantId;\n            resTracks[i] = merchantsData[currMerchant]; \n            dateofTracks[i] = data[_productId].tracks[i].date;\n        }\n        return (resTracks,dateofTracks);\n    }\n}",
  "sourcePath": "D:\\projects\\productify\\contracts\\ProductTrack.sol",
  "compiler": {
    "name": "solc",
    "version": "0.8.17+commit.8df45f5f.Emscripten.clang"
  },
  "schemaVersion": "3.4.10",
  "updatedAt": "2023-06-04T14:22:06.260Z",
  "networkType": "ethereum",
  "devdoc": {
    "kind": "dev",
    "methods": {},
    "version": 1
  },
  "userdoc": {
    "kind": "user",
    "methods": {},
    "version": 1
  }
}